:020000040800F2
:10000000D02D02209D0200081D1C00086F1B000857
:10001000191C0008671B00089D1E00080000000056
:10002000000000000000000000000000251C000887
:100030006B1B000800000000211C0008B50200082E
:10004000B7020008B7020008B7020008B7020008AC
:10005000B7020008B7020008B7020008B70200089C
:10006000B7020008B7020008B7020008B70200088C
:10007000B7020008B7020008B7020008B70200087C
:10008000B7020008B7020008B7020008B70200086C
:10009000B7020008B7020008B7020008B70200085C
:1000A000B7020008B7020008B7020008B70200084C
:1000B000B7020008B7020008B7020008B70200083C
:1000C000B7020008B7020008B7020008B70200082C
:1000D000B7020008151E0008B7020008B7020008A2
:1000E000B7020008B7020008B7020008B70200080C
:1000F000B7020008B7020008B7020008B7020008FC
:10010000B7020008B7020008B7020008B7020008EB
:10011000B7020008B7020008B7020008351D000842
:10012000B7020008B7020008B7020008B7020008CB
:10013000B7020008B7020008B7020008B7020008BB
:10014000B7020008B7020008B7020008B7020008AB
:10015000B7020008B7020008B7020008B70200089B
:10016000B7020008B7020008B7020008B70200088B
:10017000B7020008B7020008B7020008000000003C
:10018000B7020008B702000800F002F800F076F8A5
:100190000AA090E8000C82448344AAF10107DA45E2
:1001A00001D100F06BF8AFF2090EBAE80F0013F0BE
:1001B000010F18BFFB1A43F0010318473C840C00E1
:1001C0005C840C000A444FF0000C10F8013B13F063
:1001D000070408BF10F8014B1D1108BF10F8015BA0
:1001E000641E05D010F8016B641E01F8016BF9D193
:1001F00013F0080F1EBF10F8014BAD1C0C1B09D1EA
:100200006D1E58BF01F801CBFAD505E014F8016B5B
:1002100001F8016B6D1EF9D59142D6D370470000ED
:100220000023002400250026103A28BF78C1FBD8FF
:10023000520728BF30C148BF0B607047662938F0AD
:100240009686642900F03C81782900F07581732935
:1002500000F01187002070471FB538F083FE9DE83D
:10026000030000F013FC00F021FF04000020002137
:1002700038F014FCE0601FBD10B510BD01F037F878
:100280001146FFF7E9FF2FF01DFF01F055F803B409
:10029000FFF7F2FF03BC03F03FFD00000948804771
:1002A00009480047FEE7FEE7FEE7FEE7FEE7FEE758
:1002B000FEE7FEE7FEE7FEE704480549054A064B70
:1002C00070470000291C000889010008D025022081
:1002D000D02D0220D0290220D0290220704770B5ED
:1002E000064600F0B7FB056806F10B0020F0070496
:1002F000B4429CBF002070BD2B466A68BAB110683A
:10030000A04210D304F1080188423CBF50685860F5
:1003100007D35168101941601168091B01605860CA
:100320001460101D70BD13465268002AE7D12146A3
:10033000284600F097FB0028DED170BD53EA020C7E
:1003400000F069802DE9F04B4FF00006002B1FBF35
:10035000B3FA83F503FA05F424FA05F65E4012BFFA
:100360001643B2FA82F502FA05F4C5F120051EBF64
:1003700022FA05FC44EA0C04203556EA044C4FEA04
:10038000144418BF641C4FF000084FF0000990425D
:1003900071EB030C39D3002919BFB1FA81F701FAC7
:1003A00007F6B0FA80F700FA07F6C7F120071EBF7C
:1003B00020FA07FC46EA0C062037B6FBF4FCA7EB54
:1003C0000507103F07F01F0BCBF120060CFA0BFBC3
:1003D0002CFA06F644BFB3460026202FA4BF5E4683
:1003E0004FF0000B5BEA060C08BF4FF0010B19EB56
:1003F0000B09ABFB027C48EB0608C01B06FB02CCDA
:100400000BFB03CC71EB0C01C1E70B4602464146E6
:100410004846BDE8F08B13B54FF000004FF00001E7
:10042000AFF30080BDE81C40704700000FB40449E2
:1004300010B503AA029800F023FE10BC5DF814FB6F
:10044000440000200FB41CB5074B06AA7B44694644
:100450000090059800F0E5FD0020694600F0F4FDED
:100460001CBC5DF814FB0000F90B000070B50C46D5
:100470000546012A05D02878800600D5EA690023C0
:1004800002E0012305E05B1C934202D2E05C0028FD
:10049000F9D1A869E618C01AA861286A1844286228
:1004A0002846AFF3008004E0D5E9012114F8010BE0
:1004B0009047B442F8D32846AFF3008070BD0000E7
:1004C0002DE9F0410646002410687529314616A52D
:1004D00010D0AFF30080002802DA404213A507E0F5
:1004E00031688A0701D512A502E0490704D511A594
:1004F000012401E0AFF3008000210A2206F1240765
:1005000009E0B0FBF2FCB0FBF2F302FB1C00303060
:1005100078541846491C0028F3D123462A46304611
:10052000BDE8F04100F00FBB000000002D0000000E
:100530002B0000002000000070B504460D46214647
:100540001068AFF300802188090502D50F4A7A446C
:1005500002E00E4A7A440E32002104F1240305E041
:1005600000F00F060009965D5E54491C0028F7D183
:1005700020780023000704D5702D02D009B1022392
:1005800011322046BDE8704000F0DDBAF2770C0071
:100590002DE9F05F894604464FF0000ADFF824B1E8
:1005A000FB44C0F820A02046E168884700287DD0A1
:1005B000252806D0D4E901219047206A401C2062FA
:1005C000F1E700255F462046E16888472028064677
:1005D00007DB312E05D2B81910F8200C08B10543FD
:1005E000F1E7A80701D525F00405C4F81CA00027F1
:1005F000C4F818A02A2E09D0304601F087FC38B381
:1006000004EB8708303EC8F8186019E059F8041B5D
:10061000204604EB87029161E1688847012F064676
:1006200018D1E069002820DA25F020051DE0D8F86F
:10063000180000EB800006EB40003038C8F81800C6
:100640002046E1688847064601F060FC0028EED1AC
:10065000012F0AD02E2E08D12046E16888477F1C42
:100660000646022F45F02005C4DBA069002803DA06
:10067000404245F00105A061E80701D025F01005D2
:10068000A6B1A6F14100192802D8203645F400652C
:100690004A463146204625604D46FFF7CFFD60B102
:1006A000012807D0ED1D25F0070000E007E000F16C
:1006B000080978E705F1040975E730467AE7206A0A
:1006C000BDE8F09FC8770C0040EA010310B59B0716
:1006D0000FD1042A0DD310C808C9121F9C42F8D0AC
:1006E00020BA19BA884201D9012010BD4FF0FF305D
:1006F00010BD1AB1D30703D0521C07E0002010BD73
:1007000010F8013B11F8014B1B1B07D110F8013BFE
:1007100011F8014B1B1B01D1921EF1D1184610BDDF
:1007200040EA0103024630B59B0710D14FF0013477
:1007300000E008C208C91D1B9D4315EAC41FF8D07C
:1007400013F0FF0102F8011B0DD01B0AF8E711F8A6
:10075000013B002B02F8013B05D011F8013B002BB7
:1007600002F8013BF3D130BD10B5431C02E010F894
:10077000011B71B18107FAD14FF0013202C88C1A06
:100780008C4314EAC211F9D0C01A0A0603D0C01E65
:1007900010BDC01A10BD0A0401D0801E10BD090290
:1007A000FCD0401E10BD40EA010370B59B072ED15E
:1007B0004FF00136042A2AD308C810C99D1B9D4357
:1007C000121F15EAC61517D0D8B2E1B2401A50EA86
:1007D000056110D198B2A1B2401A50EA05410AD180
:1007E00023F07F4024F07F41401A50EA052102D1D6
:1007F000180EA0EB146070BDA342DBD018BA21BA6A
:10080000884201D9012070BD4FF0FF3070BD0AB998
:10081000002070BD10F8013B11F8014B63B1A342F9
:100820000AD1521E08D010F8013B11F8014B1BB140
:10083000A34201D1521EEDD1181B70BD032A40F214
:10084000308010F0030C00F0158011F8013BBCF172
:10085000020F624498BF11F801CB00F8013B38BF8A
:1008600011F8013BA2F1040298BF00F801CB38BF98
:1008700000F8013B11F0030300F02580083AC0F0B6
:10088000088051F8043B083A51F804CBA0E808105E
:10089000F5E7121D5CBF51F8043B40F8043BAFF391
:1008A0000080D20724BF11F8013B11F801CB48BFEB
:1008B00011F8012B24BF00F8013B00F801CB48BF21
:1008C00000F8012B704710B5203AC0F00B80B1E85A
:1008D0001850203AA0E81850B1E81850A0E8185075
:1008E000BFF4F5AF5FEA027C24BFB1E81850A0E87E
:1008F000185044BF18C918C0BDE810405FEA827C98
:1009000024BF51F8043B40F8043B08BF7047D207AE
:1009100028BF31F8023B48BF11F8012B28BF20F84F
:10092000023B48BF00F8012B704702F0FF0343EA87
:10093000032242EA024200F002B84FF0000204290A
:10094000C0F0128010F0030C00F01B80CCF1040CFE
:10095000BCF1020F18BF00F8012BA8BF20F8022B32
:10096000A1EB0C0100F00DB85FEAC17C24BF00F8D8
:10097000012B00F8012B48BF00F8012B70474FF006
:10098000000200B5134694469646203922BFA0E8DF
:100990000C50A0E80C50B1F12001BFF4F7AF0907EB
:1009A00028BFA0E80C5048BF0CC05DF804EB8900DC
:1009B00028BF40F8042B08BF704748BF20F8022B1F
:1009C00011F0804F18BF00F8012B70474FF0013C29
:1009D00050F8042B51F8043B9A4221D1A2EB0C03AE
:1009E000934313EACC1317D150F8042B51F8043B6E
:1009F0009A4215D1A2EB0C03934313EACC130BD10B
:100A000050F8042B51F8043B9A4209D1A2EB0C0395
:100A1000934313EACC13DBD04FF00000704700BFC4
:100A2000D01A01BAB1FA81F101F0180122FA01F0ED
:100A3000CB40C1F12001DBB2C0B2C01A2CFA01F3E5
:100A4000D11A914311EAC311E6D17047704770473C
:100A50007047704700487047742502207047704700
:100A60007047704738B504460A4600206946AFF320
:100A70000080002808BF38BD02460099204600F0DB
:100A800019FB012038BD012000F02ABCF8B5AFF3F6
:100A90000080054600200C46102000BF0646A8191D
:100AA000A0420DD9324669460020AFF3008007000E
:100AB00008BF00F015FC0098A04218BF0546C419F5
:100AC000FFF7C8FF05600746F01D20F00700461934
:100AD000284600F00AF8B44208BFF8BDA21B314610
:100AE0003868BDE8F84000F0E5BA00210160C0E9CF
:100AF000011070471020704770B50446051FFFF7BE
:100B0000A9FF0068002C14BF446870BD002C18BFFA
:100B1000AC423CBF20466468F8D301680A18AA4278
:100B200018BF456003D12A68054611440160286852
:100B30004119A1421CBF6C6070BD61686960216889
:100B40000844286070BD2DE9F0470D46994692464D
:100B5000044600F124080168880604D5E06921F004
:100B60001001216000E00120A84201DD471B00E0E8
:100B70000027A1697A1902EB0900081AA061207800
:100B8000C00602D42046AFF30080002608E0D4E976
:100B900001211AF806009047206A401C761C20624A
:100BA0004E45F4DB2078C0060AD52046AFF300801E
:100BB00006E0D4E9012130209047206A401C2062E1
:100BC000381EA7F10107F4DC07E0D4E9012118F889
:100BD00005009047206A401C2062281EA5F10105EF
:100BE000F3DC2046AFF300802078000602D5022017
:100BF000BDE8F0870120FBE770472DE9FF4F0C4669
:100C00001E464FF0FF378BB0D2E90001DDF860805F
:100C10000A908A46C1F30A5505B93D4600210846A7
:100C20004FF00000BAF1000F00F4400005DA00EBCD
:100C300080004FF4400101EA50004FEA9059B9F1A9
:100C4000010F00DDB9460A9850EA4A000ED044F67A
:100C50001050A5F2FF3545432F14B8F1000F1ED0F8
:100C60007542291E1EDDC9F100021CE0B8F1010F1A
:100C70004FF0000001D0302103E0F24305E02154A1
:100C8000401CB042FBDB30460022002121540B996E
:100C9000C1F80880C1E900200FB0BDE8F08FBD1B8E
:100CA0006D1CDEE74A4600DA694206A800F0A2FAA7
:100CB00006AB93E8070003AB83E8070050460A99A8
:100CC00000F089FB8DE80700A0F500501F38009068
:100CD0000398002D0ADD42F21F014A460844002312
:100CE00003A90390684600F0F2FD09E0A0F500506A
:100CF0004A461F38002303A90390684600F0FCFD14
:100D00008DE807000004000C03D04FF0FF304108CD
:100D100000E01046B8F1000F03D000220092154603
:100D20001EE0751E05D400F0DFF9303262556D1EED
:100D3000F9D5B3460122084302D000227F1C04E00B
:100D40002078302801D100227F1E002A099784D004
:100D50001DE0112D07DA00F0C7F9303262556D1C25
:100D600050EA0102F5D1084302D00098C8B10EE064
:100D70000021681E05E0235C625C63542254401E1F
:100D8000491C8142F7DBAB46A81B401E099000209E
:100D900004F80B000B98099AC0F80880C0E9002BF2
:100DA0007AE711264FF0000857E72DE9F04F884603
:100DB0000446D21D22F0070191B0D1E90001CDE92E
:100DC0000A0101F06DF802460B98C00F01D02D20EA
:100DD00007E02068810701D52B2002E0202101EAED
:100DE000C000032A099001D0072A05DB03464146CB
:100DF000204600F0BFF90BE12078800601D5E069BC
:100E000000E00620B8F1650F814606D0B8F1660F04
:100E100018D0B8F1670F70D131E00020B9F1110F8F
:100E2000009001DB112301E009F101030AAA01A9E5
:100E30000CA8FFF7E2FEDDE90C70002609F10105C0
:100E4000834647E001204B4600904FF000470AAA36
:100E500001A90CA8FFF7D1FEDDE90DB00C995D46A4
:100E6000002610B909F101000D18B9EB050003D4F3
:100E7000C0F1FF3609F10105A5EB09002BE0B9F13E
:100E8000010F01DA4FF001090020B9F1110F0090B4
:100E9000484601DD112300E003460AAA01A90CA877
:100EA000FFF7ABFEDDE90C704D4600268346207847
:100EB00000070AD4AB4500DA5D4601A8012D04DD28
:100EC000411911F8011C302907D04F4502DA17F1FA
:100ED000040F04DA012082460FE06D1EEEE7002FBA
:100EE00002DCED1B3E4403E0781CA84200DD7D1CC3
:100EF000B81B00F1010A4FF000472078000703D427
:100F0000AA4501DB4FF0FF3A0021B7F1004F0DF188
:100F100043088DF8431024D002202B23002F01DA40
:100F20007F422D230A21021EA0F1010000DC5FB1E7
:100F300097FBF1FC97FBF1F201FB1C7C17460CF1CF
:100F4000300C08F801CDEEE7A8F10100037021880C
:100F5000090501D5452100E06521A0F1010800F84F
:100F6000011C09980FA9A1EB0807FF1D00B1012082
:100F7000411901EBEA70A1693844081A401EA061CA
:100F80002078C00602D42046AFF30080099828B12B
:100F9000D4E901219047206A401C20622078C006D5
:100FA00022D52046AFF300801EE0002E04DBB345BF
:100FB00002DD01A8805D00E03020D4E901219047E6
:100FC000206A401C2062761CAAF101005FEA000A38
:100FD0000AD100F06BF8C0680168405CD4E90121D7
:100FE0009047206A401C2062281EA5F10105DCDC28
:100FF00007E0D4E9012118F8010B9047206A401C52
:101000002062381EA7F10107F3DC2046AFF3008011
:10101000032011B041E6000001694A1C0261087812
:10102000704700B58FB0CDE9013100210591054928
:101030007944CDE9031011466846FFF7A9FA0FB0CD
:1010400000BD0000E5FFFFFF0A6802F8010B0A601F
:10105000704710B5436913B1AFF3008001E0FFF7AB
:1010600005FA012010BD127800F124010A70002257
:101070004A700122EDE711684FF0FF32E9E7000006
:10108000074B70B50D467B44FFF7CBFF044628465F
:1010900000F022F910B14FF0FF3070BD204670BD56
:1010A000ABFD0000004870476C25022000487047E7
:1010B0008C250220034640688C46002818BF8842D1
:1010C0003CBF03464068F8D318681844884207D0EC
:1010D0000CF1030020F00700001D411A521A0146CE
:1010E000081D0A60FFF708BD30B5B0F10A024FEAEB
:1010F000900E71F100034EEA817EB0EB0E0061EBC1
:1011000091014FEA101E4EEA017E10EB0E0041EBFA
:1011100011114FEA102E4EEA016E10EB0E0041EB5A
:1011200011214FEA104E4EEA014E10EB0E0041EB3A
:101130001141401841F100014FEAD00040EA4170EE
:101140004FEAD10110EB80054FEA810444EA907424
:1011500044EB01046D1944EB0404521BA3414FF00E
:10116000000348BF0A3200D530BD401C41F10001E8
:1011700030BD00002DE9F0411F46044603260168FA
:10118000072A01F4006004DB08B116A505E016A5E6
:1011900003E008B115A500E015A521F010002060BE
:1011A000A069C01EA0610FB1401EA0612046AFF330
:1011B00000804FB1D4E9012138469047206A401C95
:1011C0002062C01C206206E0206AFAE7D4E901210F
:1011D00015F8010B9047761EF8D22046AFF3008039
:1011E000BDE8F0814E414E006E616E00494E4600F2
:1011F000696E66002DE9F047814616468AB035488B
:1012000078440DC88DE80D0032487844801C03AC4A
:101210000DC884E80D0041F69B300844372190FB4F
:10122000F1F290FBF1F5A5F1800501FB12041B3CE6
:1012300002D56442012000E00020DFF898A080463B
:101240000027FA44AAF1BE0A0EE0E0070AD03246AF
:10125000684607EB470101230AEB810100F04CFBD4
:101260008DE8070064107F1C002CEED1194F7F44DD
:10127000AE3F19E0E80715D007EB04100DF1180A8E
:1012800090E80E008AE80E00C068F04201D198197B
:1012900008903246012306A903A800F02DFB03ABFA
:1012A00083E807006D10641C002DE3D14FF00103AB
:1012B00032466946B8F1000F03A802D000F007FBE0
:1012C00001E000F019FBC9E90001C9F808200AB0E3
:1012D000BDE8F087F86B0C00007B00F080007047E1
:1012E00010B500F037F8BDE8104000F02EB8754694
:1012F000FFF7D8FEAE4605006946534620F00700CA
:10130000854618B020B5FEF7D7FFBDE820404FF066
:1013100000064FF000074FF000084FF0000B21F0DF
:101320000701AC46ACE8C009ACE8C009ACE8C009AC
:10133000ACE8C0098D46704710B50446AFF3008095
:101340002046BDE81040FEF7A2BF002801D002F001
:10135000E3BC704710B5012805D0002103A000F0C0
:1013600021F8012010BD09A1F8E7000053494752B8
:10137000544D454D3A204F7574206F662068656165
:1013800070206D656D6F7279000000003A2048652D
:101390006170206D656D6F727920636F7272757008
:1013A0007465640070B505460C460A2000E06D1CAB
:1013B00002F0B4FC35B128780028F8D102E0641CB2
:1013C00002F0ACFC14B120780028F8D1BDE87040E0
:1013D0000A2002F0A3BC5FEA400C08BF91F0000FA6
:1013E0004FEA8C234FEAC12243EA51514FEA1C5085
:1013F00018BF00F5F0404FEA300018BF41F000413F
:101400005FEA6C5C00F02980BCF1FF3F08BF40F050
:1014100080407047130C06BF12044FF0100C4FF0C1
:10142000000C130E04BF12020CF1080C130F04BFC2
:1014300012010CF1040C930F04BF92000CF1020C8A
:10144000D30F04BF52000CF1010C11464FF0000203
:10145000A0F11F00A0EB0C00704711F0004F08BF77
:10146000704731F000413FF4D5AF0B0C06BF0904C3
:101470004FF0100C4FF0000C0B0E04BF09020CF1E2
:10148000080C0B0F04BF09010CF1040C8B0F04BFF7
:1014900089000CF1020CCB0F04BF49000CF1010CC8
:1014A000CCF12003A0EB0C0022FA03F302FA0CF2B9
:1014B00041EA030100F10100704720F07F4C80EA0F
:1014C000030023F07F47ACEB070303F57C5300F0E8
:1014D000004003F1FF032DE980494FEA154B09B4A1
:1014E0004FEA144325EA0B4E24EA03480FF2042680
:1014F00006EB132749083E785FEA320203FB0667D2
:10150000C7F5000707FB06F64FEA54374FEAD64601
:1015100006F1020607FB066CCCF1005C4FEA1C47A3
:101520002CEA074C07FB06F40CFB06F504EB15460A
:101530004FEA961634BF00204FF000404FEAD137F3
:1015400006FB07FC4FEA1C4C0CFB0BF7D21B03FB02
:101550000CF761EB07010CFB0EF7B0EB074072EBE9
:1015600017420CFB08F734BFA2EB0742B2EB07426D
:1015700061EB17414FEA0C444FEA910706FB07FC69
:101580004FEA1C4C0CFB0BF7B0EBC74072EB573229
:1015900003FB0CF734BFA2EBC742B2EBC74261EBCF
:1015A00057310CFB0EF7B0EBC70072EB57720CFB18
:1015B00008F734BFA2EBC702B2EBC70261EB577169
:1015C000039F4FEA816141EA921104EBCC044FEA98
:1015D000D1374FEA826206FB07FC42EA90124FEADB
:1015E00080604FEA1C4C0CFB0BF7D21B03FB0CF783
:1015F00061EB07010CFB0EF7B0EB074072EB1742F3
:101600000CFB08F734BFA2EB0742B2EB074261EBD9
:1016100017414FEA8C554FEA910704EB9C2406FBD7
:1016200007FC4FEA1C4C0CFB0BF7B0EBC74072EB0E
:10163000573203FB0CF734BFA2EBC742B2EBC742F1
:1016400061EB57310CFB0EF7B0EBC70072EB577232
:101650000CFB08F734BFA2EBC702B2EBC70261EB89
:10166000577115EB4C254FEA816141EA92114FEA1F
:1016700082624FEAD13742EA901206FB07FC44F13E
:1016800000044FEA80604FEA1C4C0CFB0BF7D21BA6
:1016900003FB0CF761EB07010CFB0EF7B0EB074007
:1016A00072EB17420CFB08F734BFA2EB0742B2EB18
:1016B000074261EB174115EB1C154FEA813141EAF6
:1016C00092414FEA823242EA90424FEA80304FEA3A
:1016D0000C7644F1000448EA03434EEA0B484FF00D
:1016E000000EB2EB080C71EB030724BF62463946CB
:1016F0004EEB0E0E4FF0000B0018524149414BEBE0
:101700000B0BB2EB080C71EB03077BF1000B24BF52
:10171000624639464EEB0E0E4FF0000B0018524158
:1017200049414BEB0B0BB2EB080C71EB03077BF160
:10173000000B24BF624639464EEB0E0E51EA0207FB
:1017400018BF46F0010616EB0E7655F1000254F173
:10175000000103D5BDE88901BDE80088BDE8890125
:10176000BDE80048B619524141EB0101A3F1010364
:10177000704780807F7E7D7C7B7A797877767675FE
:101780007473727171706F6E6E6D6C6C6B6A6A6976
:101790006868676666656464636362616160605F10
:1017A0005F5E5E5D5D5C5C5B5B5A5A595958585789
:1017B00057565655555554545353525252515150F1
:1017C00050504F4F4F4E4E4D4D4D4C4C4C4B4B4B44
:1017D0004A4A4A494949484848474747474646468A
:1017E00045454544444444434343434242424241C5
:1017F0004141002B9C4630D477002BD01CB54FEADA
:10180000370703B44FF010004FF01001BAF1000F8A
:1018100006D0BCF1000FDCBF40F0080040F008012A
:101820004FF000000FBCBDE810400BF1010BBBF105
:10183000010F08BF5FEA170722BF12F1010211F181
:1018400001014FF0004143F1000300F0004043EA82
:1018500000007047F9D35708D0E746EA064613F16F
:10186000400F4FEA16461FDD13F1200FDFBF16436E
:101870000A46002120335B42BED0C3F1200746EA6E
:10188000064602FA07F74FEA164646EA0706C3F18C
:10189000200722FA03F201FA07F721FA03F14FF0C9
:1018A000000342EA0702A7E746EA020646EA0646BE
:1018B0004FEA164646EA0106BCBF46EA0646360C23
:1018C0004FF000034FF000024FF0000194E72DE9C4
:1018D000804C9A46934670B491E8380007C831EAC4
:1018E000400C48BF34EA430C03D5FFF7E6FDFFF791
:1018F00080FFF0BCBDE8008C2DE9804C9A469346F1
:1019000070B491E8380007C810F0804F08BF13F09A
:10191000804F03D100F005F8FFF76BFFF0BCBDE886
:10192000008C20F07F4780EA030023F07F4C07EB18
:101930000C03A3F57C5300F00040A3F1FE0392F0EA
:10194000000F00F0B38095F0000F00F077802DE9D4
:1019500001494FEA11404FEA144621EA004800FBD2
:1019600006FC24EA064708FB06F607FB08F800FB1E
:1019700007F718EB06484CEB164C4FEA124B18EBE6
:1019800007484FEA15464CEB174022EA0B4E0BFB7B
:1019900006FC25EA06470EFB06F607FB0EFE0BFBD0
:1019A00007F71EEB064E4CEB164C4FF000061EEBF5
:1019B000074E4CEB174B18EB0B0840F1000018EBEF
:1019C0000E0B58EB000840F100008F1A4FF0000199
:1019D0003CBFC943661B14BFB5EB040C00213CBFE0
:1019E000C943F61B4FEA17444EEA8E0E27EA044518
:1019F0004FEA1C4704FB07622CEA074C05FB07F77C
:101A00000CFB05F604FB0CFC16EB074642EB1742F9
:101A100016EB0C4642EB1C421BEB060658EB02028F
:101A2000414146EA9E0601D5BDE80189B6195241F9
:101A300041EB0101A3F10103BDE801894FEA14451F
:101A40004FEA114724EA054621EA074C05FB07F453
:101A500006FB07F70CFB06F105FB0CFC11EB07413D
:101A600044EB17444FEA124711EB0C4144EB1C4482
:101A700022EA074C05FB07F206FB07F70CFB06F60C
:101A800005FB0CFC16EB074642EB174216EB0C4627
:101A900042EB1C456A1854F1000148BF7047B61963
:101AA000524141EB0101A3F10103704795F0000F92
:101AB00037D04FEA11424FEA144721EA024624EA9E
:101AC000074C02FB07F106FB07F70CFB06F402FBD1
:101AD0000CFC14EB074441EB17414FEA154714EB9C
:101AE0000C4441EB1C4125EA074C02FB07F506FBC1
:101AF00007F70CFB06F602FB0CFC16EB074645EB62
:101B0000174516EB0C4645EB1C42121951F100012A
:101B100048BF7047B619524141EB0101A3F10103DF
:101B200070474FEA14454FEA114724EA054621EA77
:101B3000074C05FB07F106FB07F70CFB06F24FF01D
:101B4000000605FB0CFC12EB074241EB174112EBC0
:101B50000C4251EB1C4148BF7047921841EB010108
:101B6000A3F10103704700BFFEE700BFFEE700BF1F
:101B7000FEE7000010B5C82000F0C0F800F01AF829
:101B80000A4836F0A7FD632140F2E73035F0CEF881
:101B900015F0AAFC06490868804731F00DFF21F0D6
:101BA000BDF929F03BFC29F05DFC10BD80841E00CE
:101BB0001000002010B540F605402FF0E1FA4FF478
:101BC000007301221146134810F024FD4FF40073F6
:101BD000032200210F4810F044FD4FF480630122DE
:101BE00011460C4810F016FD4FF4806303220021CB
:101BF000084810F036FD00BF01225102054810F0E0
:101C0000FCFC00BF00BF01229102024810F0F5FC6D
:101C100000BF10BD0014024000BFFEE700BFFEE79A
:101C200000BFFEE700BFFEE708B53048006840F49B
:101C300070002E4908602E48006840F001002C49D1
:101C4000086000BF2A48006800F002000028F9D0B0
:101C500000BF27480830006840F080002449083160
:101C600008600020009002E00098401C009000985E
:101C70005028F9D31E480830006840F090001C49F5
:101C8000083108600020009002E00098401C00909D
:101C900000985028F9D300BF15480830006820F09C
:101CA00003001349083108601148006811490840D1
:101CB0000F4908600846006820F480200860002072
:101CC0000B490831086000BF09480830006800204F
:101CD0000028F9D108480649091D08600020044978
:101CE0000C31086033F0A8FE08BD000088ED00E06C
:101CF00000380240FFFFF6FE1030002400214FF0B4
:101D0000E02211611146096921F004011161C21735
:101D100000EB5272D210054B1A60194609684FF455
:101D20007A725143024A116070470000000000209F
:101D30000400002010B50121054835F03AF90128CA
:101D400005D12DF011FB0121014835F02FF910BD0F
:101D500000140040F8B50446206821F01BFB06463D
:101D600020221221304628F089FE95224FF49171ED
:101D7000304628F0D5FE1BA1304622F033FB224826
:101D800019F0FBFB002201460090304629F0ECF8E8
:101D900000221E49304629F0F7F8206817F07EFC33
:101DA0000746CD221D21384628F068FE142240F255
:101DB0000911384628F0B4FE0021384617F03AFDE4
:101DC00001220021384617F0AEFD1020FEF787FAF9
:101DD00005462E606F602A4640F6B8310C482DF05B
:101DE0002BFBF8BD094F7A796D616E646961730AE6
:101DF0000A5065726379204279737368652053686D
:101E0000656C6C65790D0000B965ED006CA5040882
:101E1000A983030810B51D491D4836F0C8FC10B34E
:101E20001B4836F0CBFBC4B21A48008800F40040CF
:101E3000C8B91848008800F4804060B10A2C03D06B
:101E400000201449088020E01248008840F4004037
:101E50001049088019E00D2C06D10E48008840F486
:101E600080400C49088010E00A480088C0F30D004B
:101E700009490C5407480088401C06490880084658
:101E80000088C72801DD0020088010BD050305007B
:101E90000010014048000020CA02002000BFFEE7F9
:101EA00003B401984100009850EAC12018BF0420F3
:101EB0004A0D18BF40F0010040F2FF72B2EB515FD3
:101EC00008BF40F00200012808BF052002B070479B
:101ED00070B50446002508E02168481C2060087899
:101EE000303805EB850100EB41052168087800F0EA
:101EF00004F80028F0D1284670BD0146302903DBE4
:101F0000392901DC012070470020FCE730380A281D
:101F100001D20120704700207047000010B5442115
:101F2000074801F02AF800221E2106482DF084FA05
:101F30000549086002F052FC00200449087010BDF9
:101F4000A0230020BD480008C8010020C4010020D3
:101F50002DE9F04F87B007460C4615462946204626
:101F600000F066F920B94FF0FF3007B0BDE8F08F00
:101F700000222946204600F0FDF808B10020F4E7D1
:101F80000026204617F085FA401E00B20490204635
:101F900017F0F0F9401E00B2039068886188401A7B
:101FA0000FFA80FABAF1000F16DD2088ADF81400A0
:101FB0006088ADF81600A088ADF81800608850441D
:101FC00000B2ADF81A003046711C4EB207EBC000EB
:101FD0000599016006994160E8886188411A039873
:101FE000401A0FFA80FBBBF1000F1CDDB5F90600AB
:101FF000B4F90610884216DA2088ADF81400E88893
:10200000ADF81600A088ADF81800E888584400B272
:10201000ADF81A003046711C4EB207EBC0000599AE
:10202000016006994160B5F90200B4F902108842D6
:1020300002DDB5F9020001E0B4F902008046B5F90D
:102040000600B4F90610884202DAB5F9060001E08C
:10205000B4F9060002900298A0EB08000FFA80F98C
:1020600028882188401A00B20190019800281BDDC1
:10207000B9F1000F18DD2088ADF81400ADF8168016
:1020800021880198084400B2ADF8180008EB090057
:1020900000B2ADF81A003046711C4EB207EBC0001A
:1020A0000599016006994160A8882188411A049821
:1020B000401A00B200900098002818DDA888ADF8FA
:1020C0001400ADF81680A9880098084400B2ADF855
:1020D000180008EB090000B2ADF81A003046711C78
:1020E0004EB207EBC0000599016006994160304689
:1020F0003BE730B50346B1F90040B2F90050AC42BD
:1021000002DDB1F9004001E0B2F900401C80B1F9F4
:102110000240B2F90250AC4202DDB1F9024001E0E6
:10212000B2F902405C80B1F90440B2F90450AC420B
:1021300002DAB1F9044001E0B2F904409C80B1F93F
:102140000640B2F90650AC4202DAB1F9064001E0AD
:10215000B2F90640DC800120B3F90040B3F9045025
:10216000AC4205DCB3F90240B3F90650AC4200DDE5
:10217000002030BDF8B504460D4616460027B4F9D8
:102180000000B5F90010884212DBB4F90200B5F97D
:10219000021088420CDBB4F90400B5F9041088423F
:1021A00006DCB4F90600B5F90610884200DC012708
:1021B0000FB90020F8BD0EB90120FBE72088ADF86B
:1021C00000006088ADF8020032466946284600F0FB
:1021D000A7F808B90020EDE7A088ADF800006088F6
:1021E000ADF8020032466946284600F099F808B971
:1021F0000020DFE72088ADF80000E088ADF802009D
:1022000032466946284600F08BF808B90020D1E72D
:10221000A088ADF80000E088ADF8020032466946BB
:10222000284600F07DF808B90020C3E70120C1E787
:102230000246B2F90000B1F90430984213DCB2F959
:102240000400B1F9003098420DDBB2F90200B1F997
:102250000630984207DCB2F90600B1F90230984224
:1022600001DB012070470020FCE7F8B504460D466D
:102270001646B4F90400B5F90010884211DBB4F930
:102280000600B5F9021088420BDBB4F90000B5F97D
:102290000410884205DCB4F90200B5F90610884242
:1022A00001DD0120F8BD0EB90020FBE72088ADF864
:1022B00000006088ADF8020032466946284600F00A
:1022C0002FF808B10020EDE7A088ADF80000608885
:1022D000ADF8020032466946284600F021F808B100
:1022E0000020DFE72088ADF80000E088ADF80200AC
:1022F00032466946284600F013F808B10020D1E7BD
:10230000A088ADF80000E088ADF8020032466946CA
:10231000284600F005F808B10020C3E70120C1E716
:102320002DE9FC5F05460E4614464FF0000AB6F94B
:102330000000B5F90010884213DBB6F90000B5F9CA
:10234000041088420DDCB6F90200B5F9021088428B
:1023500007DBB6F90200B5F90610884201DC4FF040
:10236000010ABAF1000F02D10020BDE8FC9F002C49
:1023700001DC0120F9E7284617F08BF8834600EBD3
:10238000DB704710284616F0F5FF834600EBDB7044
:102390004FEA6008474501DA384600E0404681468A
:1023A0004C4500DD4C462888ADF8000028882044C4
:1023B00000B2ADF804006888ADF8020068882044D7
:1023C00000B2ADF80600002231466846FFF7A8FFCC
:1023D00080B1BDF80400204400B2ADF80400BDF89F
:1023E0000600204400B2ADF806003146684628F0E9
:1023F000EDFFBAE7E888001B00B2ADF80200E888FC
:10240000ADF80600002231466846FFF789FF80B12B
:10241000BDF80400204400B2ADF80400BDF802008D
:10242000001B00B2ADF802003146684628F0CEFF2E
:102430009BE7A888001B00B2ADF80000A888ADF8A3
:102440000400002231466846FFF76AFF80B1BDF8FC
:102450000000001B00B2ADF80000BDF80200001B38
:1024600000B2ADF802003146684628F0AFFF7CE7C5
:102470006888ADF802006888204400B2ADF8060014
:10248000002231466846FFF74BFF80B1BDF80000DF
:10249000001B00B2ADF80000BDF80600204400B2F9
:1024A000ADF806003146684628F090FF5DE7012050
:1024B0005BE710B5B1F90030B2F90040A34202DA8F
:1024C000B1F9003001E0B2F900300380B1F9023017
:1024D000B2F90240A34202DAB1F9023001E0B2F9E6
:1024E00002304380B1F90430B2F90440A34202DD66
:1024F000B1F9043001E0B2F904308380B1F906305B
:10250000B2F90640A34202DDB1F9063001E0B2F9AA
:102510000630C38010BD0000F8B505462CF014FF4E
:1025200007460020009035B14C49E868086028460D
:102530002DF09AF803E019F009FF4849086047496F
:102540000968086928F0D6FD44480068406920B150
:1025500042490968486928F0CDFD40490968C869C1
:1025600028F0C8FD3D490968086A28F0C3FD3B48CA
:102570000068006938B9002038490968A1F850019D
:1025800000BF00BFF8BD28F0EBFF2FF09FFF2FF03A
:10259000D7FB32480068B0F85001002856D02F48C9
:1025A00000680068007C00F0010040B32B48006820
:1025B0000068C068406810B3002419E0274800682C
:1025C00000F59870005D00B110E02448006800F547
:1025D000AC7000F034FD064620480068303000EB57
:1025E000C400016831604068706000BF601C84B244
:1025F0001A480068B0F85001A042DFDC00BF4FF479
:10260000807116480068303022F0F6FC2021134813
:10261000006800F5987022F0EFFC00200F4909686F
:10262000A1F8500138462CF081FE00900B4800685C
:102630000068406A50B10949096808680749096893
:1026400009684B6A06490A680099984722F04CFAD3
:1026500000F03EF800F006F800BF93E7800000208D
:102660007C00002010B5002416E0C4EBC4000C4927
:1026700051F8200030B1C4EBC401094A52F82100DE
:1026800022F0E4FAC4EBC401054A02EB81001C21EC
:1026900022F0B2FC601CC4B2042CE6DB10BD0000CA
:1026A0007C2400200146094A10680BE042688A42F7
:1026B00002D002688A4204D1027E22F00102521C3A
:1026C000027640690028F1D17047000054000020D4
:1026D0007047000010B50421014800F04EFC10BD09
:1026E0009423002010B52021014800F046FC10BDC5
:1026F000AC2300202DE9FF4704460D4616461F4631
:10270000DDE90C896FB9B8F5807F0AD100202080FF
:102710006080681E00B2A080701E00B2E080BDE83C
:10272000FF8700200090019002900390ADF80450C4
:10273000ADF80A60ADF80C50ADF80E604B4642465D
:102740003946684628F078FD4B464246394601A88E
:1027500028F072FD4B464246394602A828F06CFD2F
:102760004B464246394603A828F066FDBDF90000F5
:10277000BDF90410884202DABDF9000001E0BDF99C
:102780000400BDF90810BDF90C20914202DABDF930
:10279000081001E0BDF90C1088420BDABDF9000009
:1027A000BDF90410884202DABDF900000DE0BDF960
:1027B00004000AE0BDF90800BDF90C10884202DAF5
:1027C000BDF9080001E0BDF90C00801E00B22080B8
:1027D000BDF90000BDF90410884202DDBDF900001A
:1027E00001E0BDF90400BDF90810BDF90C209142CB
:1027F00002DDBDF9081001E0BDF90C1088420BDDC7
:10280000BDF90000BDF90410884202DDBDF90000E9
:102810000DE0BDF904000AE0BDF90800BDF90C1097
:10282000884202DDBDF9080001E0BDF90C00801C02
:1028300000B2A080BDF90210BDF90600814202DAA3
:10284000BDF9020001E0BDF90600BDF90A20BDF99D
:102850000E108A4202DABDF90A1001E0BDF90E102D
:1028600088420BDABDF90210BDF90600814202DA96
:10287000BDF902000DE0BDF906000AE0BDF90A103D
:10288000BDF90E00814202DABDF90A0001E0BDF98E
:102890000E00801E00B26080BDF90210BDF9060076
:1028A000814202DDBDF9020001E0BDF90600BDF97B
:1028B0000A20BDF90E108A4202DDBDF90A1001E0BE
:1028C000BDF90E1088420BDDBDF90210BDF90600FE
:1028D000814202DDBDF902000DE0BDF906000AE00B
:1028E000BDF90A10BDF90E00814202DDBDF90A00F2
:1028F00001E0BDF90E00801C00B2E08000BF0EE7D1
:102900002DE9F743054616460024134C2CF01CFD18
:102910008046334629462046019A1FF0C7FC0746E9
:102920005FB900BF00BF2C21204622F065FB4FF0AD
:102930000040A0620020BDE8FE830020A062E069A4
:1029400018B940462CF0F2FCE061E06908B90120BA
:10295000E0612046EFE70000D023002010B51421ED
:10296000114800F00AFB1FF053FC044600BF1CB9DD
:1029700000BF00BF00BFFEE700BF14B900BF00BF2B
:1029800010BD0A4920461FF02BFD094920461FF0C3
:1029900029FD084920461FF027FD074920461FF062
:1029A0001DFD00BFECE70000B8230020C11902089C
:1029B000951E02081D2102088919020870B50446F7
:1029C0000D461021284622F017FB206800780128C8
:1029D00004D1A08A2880E08A68800CE02068007812
:1029E000022802D1E068686005E0206800780428C9
:1029F00001D10A2068602068406820B1206829461B
:102A00004268904701E000BF00BF70BD2DE9FE4F56
:102A10000446A08A18B9E08A08B9BDE8FE8FE66AC4
:102A200096B920460DF0BCFB064606B9F5E72046F0
:102A300011F09AFB0022092130461DF04DFF60780D
:102A4000C0F3400000B1E8E700274FF48078B146BA
:102A500016E00021484625F019FF384407B200214E
:102A6000484625F04FFF8246C0170AEB106000125F
:102A700000FB08F00FFA80F8484624F085FA8146FA
:102A8000B9F1000FE5D117B9B8F5807F11D07842C0
:102A900007B24FF4803090FBF8F00FFA80F8002076
:102AA00000906B464246394604F1140028F0C4FBFE
:102AB00000BF00200290019094F8400000F00F0049
:102AC000032812D1304624F07DFB8246304624F0A4
:102AD00001FB834603200090B4F9141053465A4674
:102AE00030460CF035FD029012E0304624F0ECFB4D
:102AF0008246304624F060FA83460C200090B4F9F8
:102B000016105B46524630460CF022FD019000BF85
:102B1000304624F0B1FA054605F0010028B9BDF9A8
:102B20000800002801DD0020029005F0020028B90D
:102B3000BDF90800002801DA0020029005F0040029
:102B400028B9BDF90400002801DD0020019005F03E
:102B5000080028B9BDF90400002801DA002001901E
:102B600001AA02A9204630F06BFABDF90420BDF994
:102B70000810304600F0FCFA6078C0F3400000B165
:102B80004BE7208BBDF80810084401B22183608B0D
:102B9000BDF80410084401B2618300BF3DE72DE990
:102BA000F84F0446D4F82CB0BBF1000F01D1BDE8BA
:102BB000F88F94F8400000F00F0000B9F7E71FF01D
:102BC000CFFF06463068477E4021584626F060F821
:102BD00010B90021E183A183584624F061FB8046AF
:102BE000584624F067FB054694F8400000F00F00BB
:102BF0000C2843D10021A1831DBBB4F91E00C7F1ED
:102C000064014843642190FBF1F001B2E18358462E
:102C100024F0D2F98146584624F056FB82460C2017
:102C20000090B4F91E104B46524658460CF090FCEA
:102C3000E083B4F91E2000231946584627F02CFCE7
:102C400069E0204630F053FA00900021E1836A46A3
:102C5000204630F0F5F9BDF9003041F6FF725142DF
:102C600058460DF08FFC8146BDF80000484402B282
:102C700001230021584627F00FFC4CE094F8400057
:102C800000F00F00032846D10021E183B8F1000FC6
:102C900023D1B4F91C00C7F164014843642190FBBF
:102CA000F1F001B2A183584624F014FA8146584647
:102CB00024F088FA824603200090B4F91C10534691
:102CC0004A4658460CF044FCA083B4F91C1000237B
:102CD0001A46584627F0E0FB1DE0204630F0ECF99C
:102CE00000900021A18300226946204630F0A8F917
:102CF000BDF9003041F6FF72514258460DF0A8FB75
:102D00008146BDF80000484401B201230022584624
:102D100027F0C2FB00BFA08B002860D1E08B002809
:102D20005DD11DBB584624F0CFFA8146584624F0A9
:102D300043F98246B9F1000F02DCBAF1000F14DD4D
:102D4000B9F1000F06DA01234A460021584627F060
:102D5000A3FB0AE0BAF1000F07DA0123CAF1000071
:102D600002B20021584627F097FB00BFB8F1000FD0
:102D700023D1584624F0AEF98146584624F022FA71
:102D80008246B9F1000F02DCBAF1000F14DDB9F18F
:102D9000000F06DA012300224946584627F07CFB43
:102DA0000AE0BAF1000F07DA01230022CAF100009D
:102DB00001B2584627F070FB00BF32460A21584640
:102DC0001DF08AFD6078C0F3400000B1EFE694F892
:102DD000400020F00F0184F840100021E16200BFA4
:102DE000E5E62DE9FF4104460F4614B919F0AEFAA5
:102DF00004460CB9BDE8FF81204619F040FB00B93C
:102E0000F8E794F82800C0F3800010B100BF00BFBD
:102E1000F0E71FB90020A4F85001EBE70020ADF85F
:102E20000800ADF80A00204619F0A8FA401E00B2CA
:102E3000ADF80C00204619F007FB401E00B2ADF8BB
:102E40000E0002AA39466846FFF753F9064606B94E
:102E5000D0E72068007CC0F3400060B10298206396
:102E6000039860630120A4F85001606810B16068A5
:102E70002CF00CFCBEE72068806918B12068694618
:102E80008269904700250BE004F1300000EBC5019A
:102E900000226846FFF76EF900B1ABE7681C85B207
:102EA000B4F85001A842EFDCB4F85001202809DA48
:102EB000B4F8502104F1300101EBC200694616F06C
:102EC000C0F90BE00020A4F85001B4F8502104F13F
:102ED000300101EBC20002A916F0B3F9B4F85001B9
:102EE000401CA4F85001606810B160682CF0CEFB63
:102EF00000BF7FE770B50546284600F013F804468A
:102F000000260CE02146284600F024F8064621461B
:102F1000284600F0C0F8204621F098FE3446002CE8
:102F2000F0D170BD014609B9002070474868FCE740
:102F300070B5064600243046FFF7F4FF054605E06D
:102F4000641C2946304600F005F80546002DF7D1EF
:102F5000204670BD02460B461068001D03441868E9
:102F6000704702460B4610680344186870470146D4
:102F700009B9002070478868FCE70022426082603F
:102F8000CA1C22F003010160704770B50446216835
:102F900001F1080021F07CFD0546A5B1002229467B
:102FA00020462DF0E7FD2946204662682DF0D4FD2D
:102FB000606820B12A46204661682DF0DBFD65601F
:102FC000A06800B9A560284670BD2DE9F04106460D
:102FD0000D4606B115B90020BDE8F0813046FFF777
:102FE000A1FFA84206D13046FFF7CFFF044624BB1D
:102FF0000020F1E7316801F1080021F049FD0446A5
:103000000CB90020E8E729463046FFF7AAFF07463B
:103010002246394630462DF09FFD3A46214630463D
:103020002DF0A8FD2246294630462DF0A3FD2A4664
:10303000214630462DF090FD00BF2046CCE770B50C
:103040000446216801F1080021F022FD0546A5B1E2
:103050000022294620462DF07FFD29462046A26801
:103060002DF088FDA06820B12A462046A1682DF0E9
:1030700073FDA560606800B96560284670BD0146B3
:1030800009B901207047486818B9886808B9012053
:10309000F8E70020F6E72DE9F04104460D460CB9AB
:1030A000BDE8F0812046FFF73DFFA8420FD1294639
:1030B0002046FFF74FFF6060606810B90020A060F5
:1030C0002FE00022204661682DF054FD29E02046C3
:1030D000FFF74DFFA8420FD129462046FFF741FFD9
:1030E000A060A06810B9002060601AE000222046AD
:1030F000A1682DF031FD14E029462046FFF731FF8D
:10310000064629462046FFF725FF07463A46314640
:1031100020462DF021FD3246394620462DF02AFD6D
:1031200000BF00BFBCE710B504462068806818B136
:1031300020682146826890472068006828B120688E
:10314000006820602046FFF7EEFF10BD014688684A
:1031500018B18868B0F9160070470020FCE70146F6
:10316000886818B18868807E800970470020FCE775
:103170002DE9F04104460D4616461DB916B9012049
:10318000BDE8F081204622F04BFEA068008A28446A
:1031900000B2A1680882A068408A304401B2A068E9
:1031A0004182012332462946204626F00DFA0022AC
:1031B0000B2120461DF090FB0746012F01D0384619
:1031C000DEE7204626F028F90120D9E7F7B582B0DE
:1031D00004460E4614B9049805B0F0BD00BF622243
:1031E0003146204625F0C0F90190019D00BFBDB1D8
:1031F0002868A8B100BF63223146204625F0B4F903
:1032000001900198C0B207464FB13A462B68284654
:10321000049998470190BDF80400ADF8100000BF74
:103220000498D9E72DE9F04F95B004468B469146B6
:103230009A461E9D608C20F0080008306084A4F837
:1032400020902A895946204625F08EF91490A4F83A
:1032500020A02A895946204625F086F91390608CD3
:1032600020F008006084DDE9131088420CD1DDE90C
:103270001310884208D1BDF85000BDF84C108842A8
:1032800002D115B0BDE8F08FA4F820902A895946E4
:10329000204625F069F91490A4F820A0594620464C
:1032A0000FF046F812902989129A1068149A2AF0A1
:1032B00009FD28890B2833D147F6FF7114988842FD
:1032C00002D0139888422BD1204625F084FC009030
:1032D00000EBD0704710204623F006FE009000EB74
:1032E000D0704FEA600847F6FF711498884208D101
:1032F000781C08F10101884200DA01E008F10100C0
:10330000149047F6FF711398884208D1781C08F191
:103310000101884200DA01E008F10100139000BFCA
:103320002348FFF732FE064600BF1EB900BF00BFAC
:1033300000BFFEE700BF06B9A3E71498F06013983A
:10334000306134602889B080C6F808B001A815F053
:1033500031F8314601A815F0ECF8164901A815F02E
:10336000B1F81548039000BF144901A815F0B8F84A
:10337000FF22002101A815F0CAF8298801A815F03C
:10338000B8F8698801A815F096F8E868089000BFB9
:1033900001A8002190F8422061F3000280F8422049
:1033A00000BF2869079001A815F0DAF800BF68E7A8
:1033B000C4230020C97B0308717E0308A17D030894
:1033C00010B514210148FFF7D8FD10BDC42300201B
:1033D0002DE9FE4F04460F4690464FF000090025A8
:1033E0004CE1E06800EBC5004068C0F3406000B10C
:1033F00043E1E16801EBC501496821F07F4027F016
:103400003FFE064626EA070008B9012000E000203A
:10341000029026EA080008B9012000E0002001908F
:10342000DDE90101814270D0E06850F835A04FF02D
:10343000000B6A46102150462AF01CF810B14FF0DC
:10344000010B98E06A46112150462AF013F810B19A
:103450004FF0010B8FE06A46122150462AF00AF81D
:1034600010B14FF0010B86E06A46132150462AF056
:1034700001F810B14FF0010B7DE06A46152150466E
:1034800029F0F8FF10B14FF0010B74E06A461421E7
:10349000504629F0EFFF10B14FF0010B6BE06A4688
:1034A0000A21504629F0E6FF10B14FF0010B62E00F
:1034B0006A466B21504629F0DDFF10B14FF0010B39
:1034C00059E06A466C21504629F0D4FF10B14FF004
:1034D000010B50E06A460121504629F0CBFF10B1A4
:1034E0004FF0010B47E06A460421504629F0C2FF25
:1034F00010B14FF0010B3EE06A460221504629F020
:10350000B9FF18B14FF0010B35E0B5E06A46032171
:10351000504629F0AFFF10B14FF0010B2BE06A4687
:103520000521504629F0A6FF10B14FF0010B22E013
:103530006A460621504629F09DFF10B14FF0010B5D
:1035400019E06A463221504629F094FF10B14FF03D
:10355000010B10E06A466E21504629F08BFF10B136
:103560004FF0010B07E06A466D21504629F082FFBB
:1035700008B14FF0010BBBF1000F02D00320BDE8F2
:10358000FE8F6A466921504629F074FF10B14FF052
:10359000020970E06A466A21504629F06BFF10B1BB
:1035A0004FF0020967E06A466E21504629F062FF3B
:1035B00010B14FF002095EE06A466D21504629F0D5
:1035C00059FF10B14FF0020955E06A4637215046C5
:1035D00029F050FF10B14FF002094CE06A46382143
:1035E000504629F047FF10B14FF0020943E06A4608
:1035F0003521504629F03EFF10B14FF002093AE064
:103600006A464021504629F035FF10B14FF00209BB
:1036100031E06A464521504629F02CFF10B14FF0A9
:10362000020928E06A464121504629F023FF10B1E3
:103630004FF002091FE06A464221504629F01AFF66
:1036400010B14FF0020916E06A464321504629F0B6
:1036500011FF10B14FF002090DE06A4649215046B2
:1036600029F008FF10B14FF0020904E0B9F1000F92
:1036700001D14FF0010900BF00BF6D1C608CC0F389
:103680000510A8423FF6ADAE484678E7014800680D
:10369000704700008000002070470146C1F304120B
:1036A000072A00DD0722D0B27047000001464FF61E
:1036B000FF70814201D11F20704709B90020FBE74C
:1036C000712902DA0948405CF6E7A1F1710081B284
:1036D0000748006838B107480068814203D20448AF
:1036E0000068405CE8E70020E6E70000E0FE030831
:1036F000EC0100200002002010B518210348FFF75C
:103700003CFC01202BF0D4FE10BD000070230020F3
:103710002DE9F04105460F4616460DB9BDE8F0818A
:103720002846FDF721F88046394628460A4A12689D
:1037300090470746E8193146074A126890470646FF
:103740003C4603E0A019285C2855641CA8EB060041
:10375000A042F7D200BFE1E7300200202DE9F0419E
:1037600006460C4617461D4629463046084A12684A
:1037700090472060206830B1296888190021044AE8
:103780001268904700E000203860BDE8F08100003A
:10379000280200202DE9F04F87B004460F469246DC
:1037A0009846DDE910560DB1002028801CB9002094
:1037B00007B0BDE8F08F207808B90020F8E70FB90E
:1037C0000020F5E74FF0000906F0020010B906F0FE
:1037D000040098B1002000E0401C215C0A2905D0BB
:1037E000215C0D2902D0215C0029F5D1215C01B1B9
:1037F000401C15B14FF0FF312980D9E706F00200D7
:1038000008B141F6FF7800200690059038E00020CE
:103810000490059808B9012000E0002006A904AA38
:10382000CDE90062CDE90210059960184346524681
:1038300039462CF0ADF883460498A8EB00000FFA47
:1038400080F8049848440FFA80F9BBF1000F00D1CA
:103850001CE005985844059020780A2802D020786A
:103860000D2800D112E00598205C0A2803D00598A5
:10387000205C0D2803D10598401C059006E000BF90
:103880000598205C10B1B8F1000FC0DC00BF0598AE
:1038900070B905A92046094A12689047834635B198
:1038A0000022594638461DF09BF90FFA80F900BFF7
:1038B0000DB1A5F8009005987AE7000028020020D5
:1038C0002DE9F04706468846174606B10FB9BDE810
:1038D000F0873046FCF748FF81463846FCF744FF46
:1038E000044604B9F3E704EB090A414630460B4AA3
:1038F000126890478046554603E0281B305C70559F
:103900006D1E08EB0400A842F7D906EB080022461A
:10391000394621F02BFB00BFD9E700003002002020
:1039200001460023B1F59C4F05D349F6A5708142AD
:1039300001D801207047002207E007A0805C884280
:1039400001D1012305E0501CC2B203A0805C002815
:10395000F3D100BF1846EDE7202C2E3B3A2D5F0037
:10396000024600200FA31B788B4211D113781BB99C
:103970000123137001200BE01378012B02D10023E7
:10398000137005E01378022B02D10023137001207D
:103990001378012B04D1202901D1022313700120B7
:1039A000704700002300000073B582B006460398FC
:1039B0000190324600210846019B2CF031FB054660
:1039C000002001900024681C21F062F8044600BF2A
:1039D0001CB900BF00BF00BFFEE700BF14B9002044
:1039E00004B070BD002060553246691C2046039B20
:1039F0002CF016FB2046F3E72DE9F04781460E46F2
:103A000014461F46DDF820A035461BE0600800FB89
:103A1000075529464846D047B0F1000809DD04F0B3
:103A2000010080F00100C0EB5404E8190546064689
:103A300008E0B8F1000F02DA6408354602E02846D3
:103A4000BDE8F087002CE1D10020F9E72DE9FF4F18
:103A500085B08346DDE9158ADDE91349DDE917758F
:103A6000129E05F00200F8B94FB105F0010030B127
:103A7000B9F1000F02D105F00C0000B17F1E03E088
:103A800030222046641C3254544501D2202CF7D3F6
:103A900003E030222046641C325405F0010018B1C6
:103AA000BC4201D2202CF4D305F01000B0B305F4D1
:103AB000806050B94CB1544501D0BC4205D1641E60
:103AC0001CB1B8F1100F00D1641EB8F1100F09D16C
:103AD00005F0200030B9202C04D278222046641C46
:103AE000325415E0B8F1100F09D105F0200030B1C3
:103AF000202C04D258222046641C325408E0B8F12D
:103B0000020F05D1202C03D262222046641C3254BD
:103B1000202C03D230222046641C3254202C16D292
:103B2000B9F1000F04D02D222046641C32540EE05F
:103B300005F0040020B12B222046641C325406E01C
:103B400005F0080018B120222046641C3254CDE94B
:103B50000275CDE90064584606A90EC900F0A2F826
:103B600009B0BDE8F08F2DE9FF4F8FB08046DDE949
:103B70001FABDDE91D96219D1C9C00270CB925F08B
:103B8000100505F4806000B1E4B100BFB4FBF6F1AC
:103B900006FB1141C8B20A2802DA00F1300107E041
:103BA00005F0200109B1412100E0612101440A39F9
:103BB000CBB239467F1C07AA5354B4FBF6F40CB1C0
:103BC000202FE3D307A8CDE904AB8DE8810203964B
:103BD0000695404610A90EC9FFF738FF13B0BDE89F
:103BE000F08F2DE9FF4F8FB0DDE9217BDDF890806C
:103BF000209EDDE91C454FF00009002184EA010008
:103C00006940084301D128F0100808F4806028B109
:103C1000002184EA0100694008432DD000BF3246EC
:103C20003B4620462946FCF789FB02F0FF0ABAF121
:103C30000A0F02DA0AF1300007E008F0200008B1AC
:103C4000412000E0612050440A38C2B2484609F1E0
:103C5000010907A90A5432463B4620462946FCF78B
:103C60006DFB04460D46002184EA010069400843CB
:103C700002D0B9F1200FD2D32398CDE9036BCDE95F
:103C8000050807A91E98CDE9001902900FA80FC8D2
:103C9000FFF7DCFE13B0BDE8F08F9A4200D28854E3
:103CA000704770472DE9FF5F05461446DDE90EA613
:103CB000DDE91087A34607F0020078B907F001009C
:103CC00060B9B14607E02246641C2020039B01999D
:103CD000A84709F10109C145F5D300BF08E0224614
:103CE000641C711E0E461AF80100039B0199A84737
:103CF000002EF4D107F0020050B105E02246641C0A
:103D00002020039B0199A847A4EB0B004045F5D365
:103D1000204604B0BDE8F09F00BF704700BF704769
:103D20002DE9FF4F8BB0074600250C9800B9FA4FDC
:103D3000EAE20E98007825280AD02A466D1C0E99D2
:103D40000878DDE90C13B8470E98401C0E90DBE2B2
:103D50000E98401C0E90002400BF0E9800782B286F
:103D600019D004DC20281ED023282CD123E02D28B4
:103D700009D0302827D144F001040E98401C0E9041
:103D800001200A9022E044F002040E98401C0E909C
:103D900001200A901AE044F004040E98401C0E9092
:103DA00001200A9012E044F008040E98401C0E9086
:103DB00001200A900AE044F010040E98401C0E9076
:103DC00001200A9002E000200A9000BF00BF0A987C
:103DD0000028C2D180460E990878FEF78EF820B1EF
:103DE0000EA8FEF775F8804612E00E9800782A2893
:103DF0000ED1189901C91891002804DA44F0020480
:103E0000C0F1000800E080460E99491C0E9100BFE9
:103E10004FF000090E9800782E281FD144F48064DA
:103E20000E98401C0E900E990878FEF766F820B1A7
:103E30000EA8FEF74DF8814610E00E9800782A286B
:103E40000CD1189901C91891002801DD014600E044
:103E5000002189460E99491C0E9100BF0E980078EA
:103E60006C280AD004DC682816D06A2835D128E0EE
:103E7000742820D07A2830D129E044F480740E9838
:103E8000401C0E900E9800786C2804D144F4007405
:103E90000E98401C0E9021E044F080040E98401CC7
:103EA0000E900E980078682804D144F040040E98D3
:103EB000401C0E9012E044F480740E98401C0E904A
:103EC0000CE044F400740E98401C0E9006E044F49C
:103ED00080740E98401C0E9000E000BF00BF0E984A
:103EE000007869281DD00EDC622821D006DC252848
:103EF0007ED050281AD058287BD115E0632879D07D
:103F00006428F9D10CE0732875D004DC6F280ED03A
:103F10007028F1D109E0752804D07828ECD102E0AE
:103F200000BF00BF00BF00BF00BF00BF00BF00BF99
:103F30000E980078782803D00E980078582801D180
:103F4000102623E00E980078702803D00E98007891
:103F500050280CD1102644F0100444F480740E98BC
:103F60004078562812D10E98401C0E900EE00E9804
:103F700000786F2801D1082608E00E9800786228A2
:103F800001D1022602E00A2624F010040E980078DF
:103F9000582803D00E980078502801D144F020040E
:103FA0000E980078692805D00E980078642801D012
:103FB00024F00C0404F4806008B124F001040E988D
:103FC0000078692803D00E98007864287CD104F426
:103FD0000070B8B31898C01D20F007001890D0E901
:103FE00000AB189A083218920020CDE9069803E039
:103FF00073E17CE1F2E01CE1CDE904600894BAEBE6
:1040000000017BEB000001DA012000E0002000212C
:1040100002900846B1EB0A0170EB0B0002DA504641
:10402000594605E000200146B0EB0A0061EB0B01A8
:10403000CDE900012A463846DDE90C13FFF7D1FD32
:104040000546C7E0FFE704F48070D0B1189850F837
:1040500004AB18904FEADA70CDE903980296059404
:10406000BAF1000F01DD514601E0CAF10001CDE9CE
:1040700000102A463846DDE90C13FFF774FD0546AB
:10408000A8E004F0400028B1189810F8041B18901C
:10409000C8B20DE004F0800028B1189830F8041B75
:1040A000189008B204E0189800681899091D189132
:1040B00082464FEADA70CDE9039802960594BAF188
:1040C000000F02DD514602E00BE0CAF10001CDE92C
:1040D00000102A463846DDE90C13FFF744FD05467B
:1040E00078E00E980078562818D1189850F804AB4C
:1040F0001890DAF804000068099009980090DAF83E
:1041000000300D98421B0C9841193846FFF708FE05
:104110000544002009905DE0A33C000804F4007011
:10412000D0B11898C01D20F00700CDE9069808947A
:1041300018900020CDE904600290189903C9189ADC
:1041400008321892CDE900012A463846DDE90C1301
:10415000FFF747FD05463DE004F4807098B100226A
:10416000CDE9039802960594189800681899091DDE
:10417000CDE9000218912A463846DDE90C13FFF715
:10418000F2FC054626E004F0400028B1189810F82B
:10419000041B1890C8B20DE004F0800028B11898F4
:1041A00030F8041B189088B204E018980068189939
:1041B000091D189182460020CDE900A0CDE90398A1
:1041C000029605942A463846DDE90C13FFF7CBFC2E
:1041D000054600BF0E98401C0E9093E0012604F0A7
:1041E000020050B905E02A466D1C2020DDE90C13C1
:1041F000B8473046761C4045F5D3189911F8043B72
:10420000D8B22A466D1C1891DDE90C13B84704F0AA
:10421000020050B105E02A466D1C2020DDE90C1398
:10422000B8473046761C4045F5D30E98401C0E909A
:1042300068E0189850F804AB18905046B9F1000F98
:1042400001D0494601E04FF0FF310A46014600E047
:10425000491C0B781BB1131EA2F10102F8D10E1AF2
:1042600004F4806028B14E4501D2304600E0484653
:10427000064604F0020050B905E02A466D1C2020D5
:10428000DDE90C13B8473046761C4045F5D306E00F
:104290001AF8010B2A466D1CDDE90C13B8479AF891
:1042A000000040B104F480600028F1D0B9F10000B2
:1042B000A9F10109ECD104F0020050B105E02A4651
:1042C0006D1C2020DDE90C13B8473046761C4045B4
:1042D000F5D30E98401C0E9014E02A466D1C252044
:1042E000DDE90C13B8470E98401C0E900AE02A46F0
:1042F0006D1C0E990878DDE90C13B8470E98401C28
:104300000E9000BF00BF00BF0E98007800287FF419
:1043100010AD0D98854201D2284601E00D98401E4F
:1043200002460020DDE90C13B84728460FB0BDE86F
:10433000F08F2DE9FC4105460E46174698462C683D
:10434000D4E90010884215D1206840002060206820
:1043500000EB4000400000F10C01204620F0A8FCDA
:1043600004461CB94FF0FF30BDE8FC8104F10C009D
:10437000A0602C60ADF80060ADF802708DF804808C
:10438000D4E9011001EB410100EB4100009901600B
:10439000BDF8041081806068401C60606068411E48
:1043A000084008B90120DFE70020DDE72DE9F041F2
:1043B00004460E46002774B13146204600F02DF821
:1043C0000546B5F5003F05D20C2D01D9284600E081
:1043D0000C20074600BF3846BDE8F081024600BF0A
:1043E000481E084018B100BF00BF00BFFEE700BF75
:1043F000481E1040101A704710B502464B1E134459
:104400004C1E23EA040000BF4B1E0B401BB100BF33
:1044100000BF00BFFEE700BF10BD024600BF481E40
:10442000084018B100BF00BF00BFFEE700BF481E34
:1044300010444B1E984370472DE9F04180460E46CC
:10444000444601206086002500270DE056F827002D
:1044500025A1FCF7BBFA10B1681C85B202E0608EA2
:10446000401C6086781C87B256F8270020B156F8A9
:10447000270000780028E9D1208EA84201D1BDE8AC
:10448000F081A06A20B1A06A20F0E0FB0020A062C9
:10449000E06A20B1E06A20F0D9FB0020E062E80089
:1044A00020F0F6FAA06200BFA06A18B900BF00BFF2
:1044B00000BFFEE700BF680020F0EAFAE06200BF3C
:1044C000E06A18B900BF00BF00BFFEE700BFA06AE6
:1044D00008B1E06A00B900256900E06A20F08CFDAF
:1044E000258600BFCBE700000A0000002DE9F84F49
:1044F00081460E46924699F8090000F0070002280E
:1045000001D1304600E050468346564501DD304635
:1045100000E050460746032000EB470020F0030070
:1045200000F110053948006839490968A0EB010815
:10453000002405EB080037490968884206D2334851
:104540000468606820F0004060603AE0314800682C
:10455000854221D813E04FF0FF30009000226946D9
:104560002D4810F0ADFB002269462C4810F0A8FB46
:104570002648006826490968A0EB010800BF08EB3F
:104580000500244909688842E5D820480468606825
:1045900020F00040606014E0284620F079FA0446DC
:1045A00000BF1CB900BF00BF00BFFEE700BF14B9C9
:1045B0000020BDE8F88F606820F0004000F1004066
:1045C000606032465946484602F052F92060606801
:1045D00000F04040401C6060606820F080406060F7
:1045E000A781A4F80EB06068C00F20B1204600F18A
:1045F0001001A16008E0054800681030A060034881
:1046000000682844014908602046D2E7880000205D
:10461000E80100208400002083010108414D0108C9
:10462000F0B585B006460D46344600200490039050
:10463000029065480088A84202D0FF2063490870B4
:104640006148058094F83C0000F0030020B1012887
:1046500038D0022866D000BF94F83C0000F0030078
:104660005A49097888421BD02620005D00EB0010D3
:1046700000EB4000142190FBF1F055490870272011
:10468000005D00EB001000EB4000142190FBF1F006
:104690005049087094F83C0000F003004B49087042
:1046A00002A803A9CDE9001005EB45014FF6FF7202
:1046B00002EA410004AB47490A78454909780BF002
:1046C00030FA5FE094F83C0000F003003F490978BD
:1046D00088421AD0A08C00EB400040024FF4B47125
:1046E000B0FBF1F03C4908802720005D00EB001092
:1046F00000EB4000142190FBF1F03649087094F86B
:104700003C0000F003003149087002A803A9CDE97C
:104710000010E9B204AB2F4802782F4800880BF054
:1047200000FA2FE094F83C0000F0030027490978D4
:1047300088421AD0A08C00EB400040024FF4B471C4
:10474000B0FBF1F0244908802620005D00EB00104A
:1047500000EB4000142190FBF1F01D49087094F823
:104760003C0000F003001949087002A803A9EAB24E
:1047700004ABCDE9001016480178174800880BF00B
:10478000D0F900BF00BF9DF810009DF80C109DF8F7
:104790000820D708BDF8003067F304038F080093A2
:1047A000BDF8003067F34A13C7080093BDF8003026
:1047B00067F3CF230093BDF800703B460193BDF82B
:1047C0000410084605B0F0BD380100203601002075
:1047D00034010020350100203201002010B50120F5
:1047E000074908700748FEF79DFB20B90648006896
:1047F0002AF03AFF03E0044800682AF047FF10BDA2
:10480000C4010020A0230020C801002010B50446E8
:1048100094F84200C0F3400070B9B4F8400000289A
:104820000ADDB4F840004FF6FF71884204D0B4F8B6
:104830004000401EA4F84000B4F84000D0B9A06B7E
:1048400020B194F84200C0F3400098B121461A48C4
:10485000FEF721FCFFF7C2FFE06810B12046E168D7
:104860008847206910B1204621698847204620F0FA
:10487000EDF91FE0E06B40422063A06BD0B194F8EB
:104880004210C1F3400111B9616B4942216394F8B0
:1048900042104908C94394F8422061F3410284F868
:1048A0004220206AA16A2162A062E06AA16BE162F3
:1048B000A06300BF10BD0000A02300202DE9F0413F
:1048C0008046424800682AF031FD0646404800789C
:1048D00080F001003E4908703E48FEF723FB044685
:1048E0006BE000203C49087094F84200C0F380005F
:1048F00037490978884253D0354801783034A07C54
:1049000061F38200A07420688719A07C303CC0F35A
:10491000C00010BB206B00281FDC002F1DDB94F8AB
:10492000420000F0010060B9606950B12046616941
:1049300088470546206A28442062A06A2844A0626D
:1049400000BFA06810B12046A168884794F84200D3
:1049500020F00800083084F84200206B30442063C7
:10496000206B00281BDBD4E90B10884201DDE06AD4
:1049700020632046E16988470546606AA84206D060
:104980006562606818B12946D4E900029047D4E90D
:104990000B10884202DB2046FFF738FF00BF00BF44
:1049A0000D48007820B10B48FEF7BCFA044604E03D
:1049B00021460848FEF7CEFA0446002C91D12AF091
:1049C000C3FC02490860BDE8F0810000C00100207E
:1049D000C5010020A0230020C401002070B50446BA
:1049E0000D46606818B129466068FFF7F7FF206838
:1049F00018B1294620462268904770BD70B505461B
:104A00000C46A1B2284614F049FB70BD70B50546AE
:104A10000C46A1B2284614F092FB70BD2DE9FF4F61
:104A20008FB01F46DDF888801C980E901D980D9061
:104A300000200B902398042806D0052809D00628CA
:104A40000CD014281AD114E000200C904FF0020969
:104A500017E001200C904FF0030912E001200C90A8
:104A60004FF00209FEF712FE05462868008F0B90F2
:104A700007E001200C904FF0020902E013B0BDE8FE
:104A8000F08F00BF002489E11E9860430E9901EB6E
:104A900020201C901F9860430D9901EB20201D9051
:104AA0001C9805121D980612002D07DB10988542F0
:104AB00004DA002E02DB1198864203DB002008F89E
:104AC000040069E11C98C0B20A901D9800F0FF0A2A
:104AD0000A98802807DA4FF0FF3B0A98C0F17F0060
:104AE00040000A9005E04FF0010B0A988038400022
:104AF0000A90BAF1800F07DA4FF0FF300990CAF13F
:104B00007F004FEA400A05E001200990AAF18000E9
:104B10004FEA400A0F98089006FB07F000FB09F0E7
:104B200005FB090108980844089005EB0B000028D4
:104B30007EDB05EB0B011098401E814278DC099862
:104B400030440028F4DB099831181198401E814246
:104B5000F4DC0898079008980BFB09000690099868
:104B600000FB07F1089801FB090005900C9800284C
:104B70007FD0239B052B06D1079B9878059B9978BE
:104B8000069B9A783BE0239B142B18D1DDF844C098
:104B900007FB0CFCDDF83CE00EEB4C0306FB073C8E
:104BA0001CF8050006FB073CAC441CF80B20DDF8A4
:104BB00024C0B4440CFB073C1CF805101FE0239BE9
:104BC000062B19D1079B1B88BDF82CC063450BD061
:104BD000059B1B88BDF82CC0634505D0069B1B8830
:104BE000BDF82CC0634503D1002308F80430D3E09E
:104BF000FF20FF21FF2202E0FF20FF21FF22814250
:104C000007D001FB0AF3CAF5807C00FB0C33C3F329
:104C10000721824209D00A9B5343DDF828C0CCF516
:104C2000807C00FB0C33C3F307228B185B1000E081
:104C300059E008F8043018F8043003B9ACE0079BD9
:104C400093F800C05B780CEB03239BB20493059BA5
:104C500093F800C05B780CEB03239BB20393069B95
:104C600093F800C05B780CEB03239BB202930CE03B
:104C7000FFE707980088049006980088029005983E
:104C800000880390FF2008F80400BDF81000BDF86C
:104C90000C1088420CD1BDF81000BDF808108842F5
:104CA00006D1219800EB4400BDF81010018019E0F6
:104CB0000AF0FF02DDE9030116F0B6FD03900A9841
:104CC000C2B20499029816F0AFFD02907F22DDE98E
:104CD000020116F0A9FD0190219800EB4400BDF8F7
:104CE0000410018057E008990A78497802EB012105
:104CF0008AB2219921F814202399052904D0062984
:104D000005D0142919D10EE00899887817E0219967
:104D100031F81410BDF82C20914201D1002100E09F
:104D2000FF2108460BE0119A07FB02F10F9A02EBF4
:104D3000410106FB0711485D01E0FF2000BF00BFF5
:104D400015B9BBF1000F06DB1099491EA9420BD122
:104D5000BBF1000F08DD0A99C1F1FF014143C1F326
:104D6000072108F8041015E016B90999002906DB97
:104D70001199491EB1420AD10999002907DDCAF1EA
:104D8000FF014143C1F3072108F8041002E00021AC
:104D900008F8041000BF00BF601C04B220988442D1
:104DA000FFF672AE00BF69E62DE9F84F04468C4667
:104DB00090469946109FDDE90A56AA4600960020C3
:104DC00032E00C9941430AEB21250D994143DDF86E
:104DD00000B00BEB21262A123312002A05DB6245B4
:104DE00003DA002B01DB434502DB0021395419E0D3
:104DF000214603FB09FB0BEB4B0B02EB420EF3448A
:104E0000594491F800B091F801E00BEB0E2B1FFA1A
:104E10008BFEDDF83CB02BF810E091F802B007F8FB
:104E200000B000BF411C08B20E998842C9DBBDE842
:104E3000F88F10B50EF032F810BD70B505460C466F
:104E4000164606E028466A1C95B200F008F804F8F9
:104E5000010B301EA6F101018EB2F3D170BD70B509
:104E6000044600260EF0C8F82112A02202EB4101F0
:104E7000C8B20EF089F80EF007F92546E11704EBE9
:104E800011610912A4EB0121C8B20EF07DF80EF0F9
:104E9000FBF80EF0B1F8A1200EF076F80EF0F4F861
:104EA00000200EF041F806460EF0CEF8304670BDF8
:104EB00070B505460C46164606E02178284600F0F7
:104EC00009F8681C85B2641C301EA6F101018EB27F
:104ED000F3D170BD70B504460E460EF08DF8211268
:104EE000A02202EB4101C8B20EF04EF80EF0CCF851
:104EF0002546E11704EB11610912A4EB0121C8B2A8
:104F00000EF042F80EF0C0F830460EF03DF80EF00C
:104F1000BBF80EF099F80A2002F074F970BD000099
:104F200030B591B004462546A88F18B920462CF01C
:104F300049F81EE0684613F03DFA2946684613F02A
:104F4000FCFA0D49684613F0C3FAA98F684613F0BE
:104F5000D4FA01220021684613F0E5FA07496846B1
:104F600013F0BAFA0648039000BF684613F0F8FA47
:104F700000BF11B030BD00004D1003089F84010830
:104F80004F10030870B504460D4600BF204600F0E0
:104F90003BF818B100BF00BF00BFFEE700BF2846C6
:104FA00000F050F9001D616808446060204600F080
:104FB0003AF8204670BD70B505460C46284600F00C
:104FC00041F904F11001884201D3012070BD002095
:104FD000FCE70146A1F1080070477CB505460C4688
:104FE000204600F02FF906466A4601A92BF06EFB19
:104FF00021462846DDE900320FF088F97CBD0146E4
:10500000087900F00100704710B50446204600F012
:1050100019F908B9012010BD0020FCE70146087904
:1050200000F00200704770B50446204600F097F883
:1050300005462C60284670BD7CB506460C4600200F
:105040000190009000256CB16A4601A920462BF022
:105050005AFB01980B2805DA6A4601A930462EF062
:1050600077F9054685B100BF284600F0EBF8A0426D
:1050700003D200BF00BF00BFFEE700BF2946304695
:10508000DDE900322DF0E0FB28467CBD70B504461A
:105090002046FFF7C8FF0546284600F0BEF8204628
:1050A00000F0B6F870BD70B50446204600F057F821
:1050B0000546284600F0B6F8204600F0BEF870BD60
:1050C00070B506460D46284600F049F8044600BF74
:1050D0001CB900BF00BF00BFFEE700BF2046FFF7BE
:1050E0008EFF90B100BF2846FFF78EFF18B100BFBA
:1050F00000BF00BFFEE700BF2146304600F076F853
:1051000021462846FFF73EFF0546284670BD70B58C
:1051100006460D462846FFF781FFF0B1284600F00D
:1051200057F8044600BF1CB900BF00BF00BFFEE730
:1051300000BF00BF2046FFF762FF18B900BF00BFE5
:1051400000BFFEE700BF2146304600F04FF8294679
:105150002046FFF717FF054600BF284670BD2DE922
:10516000F0410446204600F06DF8061F204600F08E
:10517000B8F8074631462BF024FE054600BF20460E
:10518000FFF742FF18B100BF00BF00BFFEE700BF3E
:105190002846BDE8F0812DE9F04106460C4615464B
:1051A000002794B100BF1DB900BF00BF00BFFEE7DC
:1051B00000BF2A462146304600F097F82046FFF708
:1051C00072FF204600F08DF807463846BDE8F081B2
:1051D00010B5044600BF2046FFF720FF18B900BFF6
:1051E00000BF00BFFEE700BF206810BD7CB50546CC
:1051F0000C46204600F026F806466A4601A92BF028
:1052000065FA21462846DDE900322DF01DFB7CBD04
:10521000416841F0010141607047416841F002017D
:1052200041607047416821F0020141607047426867
:1052300002F003030B4343607047416821F0010112
:10524000416070470146486820F0030070472DE92F
:10525000F04706460C46304600F043F88046211FD2
:105260002BF0AFFD07463046FFF7ECFF211D451A36
:1052700000BF384600F035F88146384600F031F876
:1052800080460421FFF7B8F8814503D000BF00BF76
:1052900000BFFEE700BF00BF3046FFF7D3FF29196C
:1052A000091D884203D000BF00BF00BFFEE700BF5A
:1052B00029463846FFF7BBFF00BF3846FFF7C2FF5D
:1052C0000C2803D200BF00BF00BFFEE700BF21468D
:1052D0003046FFF7ACFF3846FFF7D8FE3846BDE84A
:1052E000F087014601F1080070472DE9F0410646BC
:1052F0000C46154600BF2046FFF781FE18B900BFD7
:1053000000BF00BFFEE700BF29462046FFF753FE5F
:1053100078B129462046FFF79AFF07462046FFF757
:1053200082FE3846FFF779FF39463046FFF755FED3
:1053300000BFBDE8F0812DE9F04106460C46154658
:1053400000BF2046FFF75BFE18B100BF00BF00BFE3
:10535000FEE700BF29462046FFF72DFE88B129460B
:105360002046FFF774FF07463846FFF75BFF3946D4
:105370003046FFF7A5FE074639463046FFF72DFEBB
:1053800000BFBDE8F0812DE9F843064634461DF024
:10539000E7FB804640461DF028FC78BB30461AF0FB
:1053A000AAFF38B330461AF016FE208FE18E8842ED
:1053B00012D0E08E2087E08E00906A461C21304695
:1053C0001BF08AFA0746012F02D03846BDE8F88361
:1053D000304624F021F800BF40461DF016FC05467B
:1053E000042D06D1304621F075FD074600211CF042
:1053F00007FA09E030461AF0E1FF05E0FFE7208FE9
:10540000E086304624F008F80120DFE72DE9F0417E
:10541000044620461BF05AFA0546284621F0B4FD02
:105420000646284614F078FF0746002239463046E3
:1054300029F072F9BDE8F0810146C1F30020704700
:105440000146C1F3C01070470146C1F30020704708
:105450000146C1F3402070470146C1F30010704778
:105460000146C1F3801070470146C1F380207047A8
:105470000146C1F3C02070470146C1F34010704798
:105480002DE9F04F89B004460D460021204621F059
:1054900014FC30B91C2128461FF0AEFD09B0BDE850
:1054A000F08F2946204600F00BFB2946204600F0ED
:1054B0007DF80021204622F02FFE08900021204692
:1054C00022F092FF07900021204622F0E4FB012801
:1054D00000D100E0002081460021204623F036FA6A
:1054E00007460021204622F0BDFC064642F2D1705C
:1054F000874205D1608CC0F3C02008B9012000E0CC
:1055000000208246204621F078FC069000BF4FF034
:105510000008244802884146204623F025F80390DD
:105520000398C0B200BF8346AA6829692868CDE9FC
:105530000209CDE900125A465146089B06980DF023
:10554000DBF8288342F2D170864205D1608CC0F32B
:10555000802008B9012000E000200590204621F0BD
:105560002DFC049000BF4FF000080F480288414610
:10557000204622F0F9FF03900398C0B200BF834693
:105580000023EA6869686869CDE90213CDE9000281
:105590005A46079BDDE904010DF0AEF8688300BFB1
:1055A0007CE70000A8000020AC0000202DE9F34FAC
:1055B00087B00C4607980BF045FF8046079821F00E
:1055C0001CFC0690404601F024FB20612169480044
:1055D0001FF0A8FA2060216948001FF0A3FAA0601C
:1055E000002548E05848029038F9150041F69A71B4
:1055F00088423FD10020019029E00199079821F0CD
:105600005CFB00905149009823F04DFB00B11BE07A
:1056100000980BF035FF8246BAF1010F00D013E07D
:1056200000980BF01DFF8346AB4500D00CE00098BE
:1056300023F0D1FA0299884201DA029802E0009838
:1056400023F0C9FA029000BF0198401C019007980E
:1056500021F051FB01998842CFD80298002804DB41
:105660000298A16821F8150003E00021A06820F845
:10567000151000BF6D1C2069A842B3D80026B146A2
:1056800000251BE038F9150041F69B71884202DBCA
:10569000411A0E4411E041F69A71884206D1A16880
:1056A00031F8151049440FFA81F906E0A16821F894
:1056B000150009EB00010FFA81F96D1C2069A84261
:1056C000E0D80021079822F027FD05902169491EA6
:1056D000DDE9050200FB112000B206900698A0EB60
:1056E000090007B2002F00DA00274FF0FF300490C6
:1056F00000200390002513E038F9150041F69B7156
:1057000088420CDB421A11B207FB01F2B2FBF6F23F
:1057100012B2A36823F815200495039100BF6D1CF5
:105720002069A842E8D8049800280ADB0398301AB8
:105730007843B0FBF6F0381A01B2A268049822F858
:10574000101009B0BDE8F08F01E0FFFF0100060076
:105750002DE9FC5F054600221146284625F02CF86D
:105760000021284622F0FFFA81460021284622F037
:105770005FFE484407B20021284622F03DFC484421
:105780000FFA80FA284622F0F3F9384450440FFA11
:1057900080FB3B4E284621F0AEFA01904FF0000806
:1057A0005CE0A868006850F828403649204623F09D
:1057B0007AFA00B150E0204623F0A6FE002839D145
:1057C0000021204622F005FA0090009830B101280F
:1057D00007D0022804D0032815D100E000BF00BF85
:1057E00000BFB4F91A10B5F91600081A401CB042EF
:1057F00001DA304605E0B4F91A10B5F91600081AB6
:10580000401C06B214E00021204623F0DBF870B9FA
:1058100004F1140013F076FD3844B04201DA30464A
:1058200004E004F1140013F06DFD384406B200BF2B
:1058300000BF10E0B4F91A10B5F91600081A401CA0
:10584000B04201DA304605E0B4F91A10B5F9160095
:10585000081A401C06B200BF08F1010801988045F3
:105860009FD30748864209D006EB0A0006B25E4580
:1058700002DD3046BDE8FC9F5846FBE75846F9E795
:1058800001E0FFFF010004002DE9FC5F0546002256
:105890001146284624F074FF0021284622F063FABE
:1058A00082460021284622F00FFD50440FFA80F86E
:1058B0000021284622F06CFC50440FFA80F928465B
:1058C00022F066F94844404400B20190724C2846E8
:1058D00021F011FA83460021284622F0B8F9012868
:1058E00066D100265BE0A868006850F826706B4916
:1058F000384623F0D8F900B150E0384623F004FED2
:10590000002839D10021384622F063F90090009830
:1059100030B1032805D0062804D0082815D102E0AC
:1059200000BF00BF00BFB5F91800B7F91410401A46
:10593000401CA04201DA204605E0B5F91800B7F98D
:105940001410401A401C04B214E00021384623F021
:105950002DF870B907F1140013F047FD4044A04240
:1059600001DA204604E007F1140013F03EFD404444
:1059700004B200BF00BF10E0B5F91800B7F9141069
:10598000401A401CA04201DA204605E0B5F9180093
:10599000B7F91410401A401C04B200BF761C5E45D3
:1059A000A1D33D48844269D004EB090004B265E00C
:1059B00000265BE0A868006850F826703749384632
:1059C00023F071F900B150E0384623F09DFD80BB13
:1059D0000021384622F0FDF80090009830B10128EF
:1059E00005D0042804D0072815D102E000BF00BF6D
:1059F00000BFB7F91800B5F91410401A401CA042B6
:105A000001DA204605E0B7F91800B5F91410401A7C
:105A1000401C04B215E00021384622F0D3FF78B9CB
:105A200007F1140013F0E1FC4844A04202DA2046DA
:105A300005E008E007F1140013F0D7FC484404B275
:105A400000BF00BF10E0B7F91800B5F91410401AF4
:105A5000401CA04201DA204605E0B7F91800B5F96C
:105A60001410401A401C04B200BF761C5E45A1D33E
:105A70000948844202D004EB080004B2064884427C
:105A800002D10198BDE8FC9F0198844201DD2046C7
:105A9000F8E70198F6E7000001E0FFFF01000400CD
:105AA00010B5044620681FF0B9F860681FF0B6F81A
:105AB000A0681FF0B3F8E0681FF0B0F810BD000058
:105AC0002DE9F34F87B00C4607980CF0D3FA8046C7
:105AD000404601F09EF86061616948001FF022F8BD
