:020000040800F2
:1000000068E800209502000801180008531700084E
:10001000FD1700084B170008C11900080000000078
:1000200000000000000000000000000009180008A7
:100030004F1700080000000005180008AD02000876
:10004000AF020008AF020008AF020008AF020008CC
:10005000AF020008AF020008AF020008AF020008BC
:10006000AF020008AF020008AF020008AF020008AC
:10007000AF020008AF020008AF020008AF0200089C
:10008000AF020008AF020008AF020008AF0200088C
:10009000AF020008AF020008AF020008AF0200087C
:1000A000AF020008AF020008AF020008AF0200086C
:1000B000AF020008AF020008AF020008AF0200085C
:1000C000AF020008AF020008AF020008AF0200084C
:1000D000AF02000839190008AF020008AF0200089B
:1000E000AF020008AF020008AF020008AF0200082C
:1000F000AF020008AF020008AF020008AF0200081C
:10010000AF020008AF020008AF020008AF0200080B
:10011000AF020008AF020008AF020008191900087A
:10012000AF020008AF020008AF020008AF020008EB
:10013000AF020008AF020008AF020008AF020008DB
:10014000AF020008AF020008AF020008AF020008CB
:10015000AF020008AF020008AF020008AF020008BB
:10016000AF020008AF020008AF020008AF020008AB
:10017000AF020008AF020008AF0200080000000054
:10018000AF020008AF02000800F002F800F072F8B9
:100190000AA090E8000C82448344AAF10107DA45E2
:1001A00001D100F067F8AFF2090EBAE80F0013F0C2
:1001B000010F18BFFB1A43F001031847F8D40300DE
:1001C00018D503000A444FF0000C10F8013B13F05F
:1001D000070408BF10F8014B1D1108BF10F8015BA0
:1001E000641E05D010F8016B641E01F8016BF9D193
:1001F00013F0080F1EBF10F8014BAD1C0C1B09D1EA
:100200006D1E58BF01F801CBFAD505E014F8016B5B
:1002100001F8016B6D1EF9D59142D6D370470000ED
:100220000023002400250026103A28BF78C1FBD8FF
:10023000520728BF30C148BF0B607047662935F0B0
:100240007686642900F00881782900F041817329BD
:1002500000F07B85002070471FB535F063FE00F08D
:100260008BFD04000020002135F0F8FBE0601FBD8D
:1002700010B510BD00F080FE1146FFF7EDFF2DF028
:100280006FFC00F09EFE03B4FFF7F2FF03BC03F027
:10029000B5FA00000948804709480047FEE7FEE735
:1002A000FEE7FEE7FEE7FEE7FEE7FEE7FEE7FEE726
:1002B00004480549054A064B704700000D18000820
:1002C0008901000868E0002068E8002068E4002058
:1002D00068E40020704753EA020C00F069802DE9C1
:1002E000F04B4FF00006002B1FBFB3FA83F503FA63
:1002F00005F424FA05F65E4012BF1643B2FA82F501
:1003000002FA05F4C5F120051EBF22FA05FC44EAF5
:100310000C04203556EA044C4FEA144418BF641C00
:100320004FF000084FF00009904271EB030C39D3F5
:10033000002919BFB1FA81F701FA07F6B0FA80F780
:1003400000FA07F6C7F120071EBF20FA07FC46EAAD
:100350000C062037B6FBF4FCA7EB0507103F07F0AF
:100360001F0BCBF120060CFA0BFB2CFA06F644BF50
:10037000B3460026202FA4BF5E464FF0000B5BEA79
:10038000060C08BF4FF0010B19EB0B09ABFB027C0D
:1003900048EB0608C01B06FB02CC0BFB03CC71EB41
:1003A0000C01C1E70B46024641464846BDE8F08BCA
:1003B00013B54FF000004FF00001AFF30080BDE82F
:1003C0001C4070470FB4044910B503AA029800F00E
:1003D000C1FC10BC5DF814FB440000200FB41CB538
:1003E000074B06AA7B4469460090059800F083FC01
:1003F0000020694600F092FC1CBC5DF814FB000074
:100400003509000070B50C460546012A05D028784C
:10041000800600D5EA69002302E0012305E05B1CA9
:10042000934202D2E05C0028F9D1A869E618C01A0C
:10043000A861286A184428622846AFF3008004E0C7
:10044000D5E9012114F8010B9047B442F8D32846AE
:10045000AFF3008070BD00002DE9F0410646002496
:1004600010687529314616A510D0AFF3008000281A
:1004700002DA404213A507E031688A0701D512A5C8
:1004800002E0490704D511A5012401E0AFF3008083
:1004900000210A2206F1240709E0B0FBF2FCB0FBC0
:1004A000F2F302FB1C00303078541846491C002837
:1004B000F3D123462A463046BDE8F04100F0B0B9FA
:1004C000000000002D0000002B00000020000000B4
:1004D00070B504460D4621461068AFF300802188B0
:1004E000090502D50F4A7A4402E00E4A7A440E32D8
:1004F000002104F1240305E000F00F060009965DD9
:100500005E54491C0028F7D120780023000704D549
:10051000702D02D009B1022311322046BDE870408F
:1005200000F07EB9AECB03002DE9F05F89460446AA
:100530004FF0000ADFF824B1FB44C0F820A02046A9
:10054000E168884700287DD0252806D0D4E901211C
:100550009047206A401C2062F1E700255F46204654
:10056000E16888472028064607DB312E05D2B819F6
:1005700010F8200C08B10543F1E7A80701D525F0D4
:100580000405C4F81CA00027C4F818A02A2E09D01E
:10059000304601F04DFA38B304EB8708303EC8F816
:1005A000186019E059F8041B204604EB870291619A
:1005B000E1688847012F064618D1E069002820DA53
:1005C00025F020051DE0D8F8180000EB800006EBB0
:1005D00040003038C8F818002046E16888470646D1
:1005E00001F026FA0028EED1012F0AD02E2E08D1D4
:1005F0002046E16888477F1C0646022F45F020050B
:10060000C4DBA069002803DA404245F00105A0617F
:10061000E80701D025F01005A6B1A6F14100192880
:1006200002D8203645F400654A463146204625600A
:100630004D46FFF703FE60B1012807D0ED1D25F000
:10064000070000E007E000F1080978E705F1040978
:1006500075E730467AE7206ABDE8F09F84CB030057
:1006600040EA0103024630B59B0710D14FF0013438
:1006700000E008C208C91D1B9D4315EAC41FF8D03D
:1006800013F0FF0102F8011B0DD01B0AF8E711F867
:10069000013B002B02F8013B05D011F8013B002B78
:1006A00002F8013BF3D130BD10B5431C02E010F855
:1006B000011B71B18107FAD14FF0013202C88C1AC7
:1006C0008C4314EAC211F9D0C01A0A0603D0C01E26
:1006D00010BDC01A10BD0A0401D0801E10BD090251
:1006E000FCD0401E10BD10B5203AC0F00B80B1E820
:1006F0001850203AA0E81850B1E81850A0E8185057
:10070000BFF4F5AF5FEA027C24BFB1E81850A0E85F
:10071000185044BF18C918C0BDE810405FEA827C79
:1007200024BF51F8043B40F8043B08BF7047D20790
:1007300028BF31F8023B48BF11F8012B28BF20F831
:10074000023B48BF00F8012B70474FF0000200B594
:10075000134694469646203922BFA0E80C50A0E8E4
:100760000C50B1F12001BFF4F7AF090728BFA0E892
:100770000C5048BF0CC05DF804EB890028BF40F85E
:10078000042B08BF704748BF20F8022B11F0804FA0
:1007900018BF00F8012B70474FF0013C50F8042BB4
:1007A00051F8043B9A4221D1A2EB0C03934313EA84
:1007B000CC1317D150F8042B51F8043B9A4215D1B1
:1007C000A2EB0C03934313EACC130BD150F8042B88
:1007D00051F8043B9A4209D1A2EB0C03934313EA6C
:1007E000CC13DBD04FF00000704700BFD01A01BA25
:1007F000B1FA81F101F0180122FA01F0CB40C1F108
:100800002001DBB2C0B2C01A2CFA01F3D11A914315
:1008100011EAC311E6D170477047704770477047BF
:100820002DE9F0470D4699469246044600F124080A
:100830000168880604D5E06921F01001216000E01C
:100840000120A84201DD471B00E00027A1697A19B9
:1008500002EB0900081AA0612078C00602D42046E5
:10086000AFF30080002608E0D4E901211AF8060061
:100870009047206A401C761C20624E45F4DB2078AD
:10088000C0060AD52046AFF3008006E0D4E9012176
:1008900030209047206A401C2062381EA7F10107D3
:1008A000F4DC07E0D4E9012118F805009047206A3C
:1008B000401C2062281EA5F10105F3DC2046AFF3A1
:1008C00000802078000602D50220BDE8F0870120D4
:1008D000FBE770472DE9FF4F0C461E464FF0FF37F0
:1008E0008BB0D2E90001DDF860800A908A46C1F33E
:1008F0000A5505B93D46002108464FF00000BAF1FF
:10090000000F00F4400005DA00EB80004FF44001D6
:1009100001EA50004FEA9059B9F1010F00DDB946E4
:100920000A9850EA4A000ED044F61050A5F2FF355E
:1009300045432F14B8F1000F1ED07542291E1EDD4D
:10094000C9F100021CE0B8F1010F4FF0000001D026
:10095000302103E0F24305E02154401CB042FBDBB0
:1009600030460022002121540B99C1F80880C1E9CA
:1009700000200FB0BDE8F08FBD1B6D1CDEE74A46BE
:1009800000DA694206A800F081FA06AB93E8070096
:1009900003AB83E8070050460A9900F01BFB8DE883
:1009A0000700A0F500501F3800900398002D09DDC6
:1009B00042F21F014A46084403A90390684600F02A
:1009C0007AFD08E0A0F500504A461F3803A90390BD
:1009D000684600F084FD8DE807000004000C03D099
:1009E0004FF0FF30410800E01046B8F1000F03D08F
:1009F0000022009215461EE0751E05D400F0C0F9D5
:100A0000303262556D1EF9D5B3460122084302D03B
:100A100000227F1C04E02078302801D100227F1EB4
:100A2000002A099786D01DE0112D07DA00F0A8F9F9
:100A3000303262556D1C50EA0102F5D1084302D0F4
:100A40000098C8B10EE00021681E05E0235C625CDE
:100A500063542254401E491C8142F7DBAB46A81B5D
:100A6000401E0990002004F80B000B98099AC0F86A
:100A70000880C0E9002B7CE711264FF0000859E7F9
:100A80002DE9F04F88460446D21D22F0070191B0AF
:100A9000D1E90001CDE90A0100F094FF02460B986C
:100AA000C00F01D02D2007E02068810701D52B2041
:100AB00002E0202101EAC000032A099001D0072AA0
:100AC00005DB03464146204600F0A0F90BE1207803
:100AD000800601D5E06900E00620B8F1650F814687
:100AE00006D0B8F1660F18D0B8F1670F70D131E0B9
:100AF0000020B9F1110F009001DB112301E009F191
:100B000001030AAA01A90CA8FFF7E4FEDDE90C70B5
:100B1000002609F10105834647E001204B4600907D
:100B20004FF000470AAA01A90CA8FFF7D3FEDDE9A0
:100B30000DB00C995D46002610B909F101000D18A1
:100B4000B9EB050003D4C0F1FF3609F10105A5EBAF
:100B500009002BE0B9F1010F01DA4FF00109002083
:100B6000B9F1110F0090484601DD112300E0034662
:100B70000AAA01A90CA8FFF7ADFEDDE90C704D46ED
:100B800000268346207800070AD4AB4500DA5D468C
:100B900001A8012D04DD411911F8011C302907D0ED
:100BA0004F4502DA17F1040F04DA012082460FE004
:100BB0006D1EEEE7002F02DCED1B3E4403E0781CC7
:100BC000A84200DD7D1CB81B00F1010A4FF0004770
:100BD0002078000703D4AA4501DB4FF0FF3A00213B
:100BE000B7F1004F0DF143088DF8431024D00220D7
:100BF0002B23002F01DA7F422D230A21021EA0F1B0
:100C0000010000DC5FB197FBF1FC97FBF1F201FB07
:100C10001C7C17460CF1300C08F801CDEEE7A8F16A
:100C2000010003702188090501D5452100E06521F7
:100C3000A0F1010800F8011C09980FA9A1EB080711
:100C4000FF1D00B10120411901EBEA70A169384490
:100C5000081A401EA0612078C00602D42046AFF3D7
:100C60000080099828B1D4E901219047206A401CEE
:100C700020622078C00622D52046AFF300801EE017
:100C8000002E04DBB34502DD01A8805D00E03020CA
:100C9000D4E901219047206A401C2062761CAAF109
:100CA00001005FEA000A0AD100F066F8C068016836
:100CB000405CD4E901219047206A401C2062281E34
:100CC000A5F10105DCDC07E0D4E9012118F8010BEE
:100CD0009047206A401C2062381EA7F10107F3DC10
:100CE0002046AFF30080032011B043E601694A1C9F
:100CF00002610878704700B58FB0CDE9013100215D
:100D0000059105497944CDE9031011466846FFF77E
:100D10000BFC0FB000BD0000E5FFFFFF0A6802F802
:100D2000010B0A60704710B5436913B1AFF300803F
:100D300001E0FFF767FB012010BD127800F12401EC
:100D40000A7000224A700122EDE711684FF0FF326D
:100D5000E9E70000074B70B50D467B44FFF7CBFF7A
:100D60000446284600F000F910B14FF0FF3070BD86
:100D7000204670BDF7F800000048704728E00020CA
:100D800030B5B0F10A024FEA900E71F100034EEA5D
:100D9000817EB0EB0E0061EB91014FEA101E4EEA2E
:100DA000017E10EB0E0041EB11114FEA102E4EEABE
:100DB000016E10EB0E0041EB11214FEA104E4EEA8E
:100DC000014E10EB0E0041EB1141401841F10001C2
:100DD0004FEAD00040EA41704FEAD10110EB8005A4
:100DE0004FEA810444EA907444EB01046D1944EB2A
:100DF0000404521BA3414FF0000348BF0A3200D540
:100E000030BD401C41F1000130BD00002DE9F04132
:100E10001F46044603260168072A01F4006004DB2C
:100E200008B116A505E016A503E008B115A500E078
:100E300015A521F010002060A069C01EA0610FB1AF
:100E4000401EA0612046AFF300804FB1D4E90121DC
:100E500038469047206A401C2062C01C206206E091
:100E6000206AFAE7D4E9012115F8010B9047761EB4
:100E7000F8D22046AFF30080BDE8F0814E414E002D
:100E80006E616E00494E4600696E66002DE9F047BE
:100E9000814616468AB0334878440DC88DE80D0067
:100EA00030487844801C03AC0DC884E80D0041F63E
:100EB0009B300844372190FBF1F290FBF1F5A5F14E
:100EC000800501FB12041B3C02D56442012000E0B6
:100ED0000020DFF890A080460027FA44AAF1BE0A5D
:100EE0000DE0E00709D03246684607EB47010AEB00
:100EF000810100F0F4FA8DE8070064107F1C002CDB
:100F0000EFD1184F7F44AC3F18E0E80714D007EB4F
:100F100004100DF1180A90E80E008AE80E00C0686F
:100F2000F04201D198190890324606A903A800F0B2
:100F3000D6FA03AB83E807006D10641C002DE4D1E2
:100F400032466946B8F1000F03A802D000F0B3FAA8
:100F500001E000F0C4FAC9E90001C9F808200AB0AC
:100F6000BDE8F087B4C20300007B00F0800070474A
:100F70000048704708E000207546FFF7F9FFAE46CD
:100F800005006946534620F00700854618B020B595
:100F9000FFF78EF9BDE820404FF000064FF0000744
:100FA0004FF000084FF0000B21F00701AC46ACE811
:100FB000C009ACE8C009ACE8C009ACE8C0098D467E
:100FC000704710B50446AFF300802046BDE81040DE
:100FD000FFF759B95FEA400C08BF91F0000F4FEAE4
:100FE0008C234FEAC12243EA51514FEA1C5018BFEB
:100FF00000F5F0404FEA300018BF41F000415FEAD1
:101000006C5C00F02980BCF1FF3F08BF40F08040DD
:101010007047130C06BF12044FF0100C4FF0000C79
:10102000130E04BF12020CF1080C130F04BF1201BF
:101030000CF1040C930F04BF92000CF1020CD30FBF
:1010400004BF52000CF1010C11464FF00002A0F158
:101050001F00A0EB0C00704711F0004F08BF704755
:1010600031F000413FF4D5AF0B0C06BF09044FF03F
:10107000100C4FF0000C0B0E04BF09020CF1080C11
:101080000B0F04BF09010CF1040C8B0F04BF890086
:101090000CF1020CCB0F04BF49000CF1010CCCF198
:1010A0002003A0EB0C0022FA03F302FA0CF241EA4F
:1010B000030100F10100704720F07F4C80EA03003B
:1010C00023F07F47ACEB070303F57C5300F00040AF
:1010D00003F1FF032DE980494FEA154B09B44FEAAC
:1010E000144325EA0B4E24EA03480FF2042606EBCC
:1010F000132749083E785FEA320203FB0667C7F50B
:10110000000707FB06F64FEA54374FEAD64606F1CA
:10111000020607FB066CCCF1005C4FEA1C472CEA88
:10112000074C07FB06F40CFB06F504EB15464FEAEB
:10113000961634BF00204FF000404FEAD13706FB2F
:1011400007FC4FEA1C4C0CFB0BF7D21B03FB0CF704
:1011500061EB07010CFB0EF7B0EB074072EB174297
:101160000CFB08F734BFA2EB0742B2EB074261EB7E
:1011700017414FEA0C444FEA910706FB07FC4FEA80
:101180001C4C0CFB0BF7B0EBC74072EB573203FB68
:101190000CF734BFA2EBC742B2EBC74261EB573149
:1011A0000CFB0EF7B0EBC70072EB57720CFB08F7A5
:1011B00034BFA2EBC702B2EBC70261EB5771039FCA
:1011C0004FEA816141EA921104EBCC044FEAD13736
:1011D0004FEA826206FB07FC42EA90124FEA806007
:1011E0004FEA1C4C0CFB0BF7D21B03FB0CF761EB1B
:1011F00007010CFB0EF7B0EB074072EB17420CFB3C
:1012000008F734BFA2EB0742B2EB074261EB17418C
:101210004FEA8C554FEA910704EB9C2406FB07FC30
:101220004FEA1C4C0CFB0BF7B0EBC74072EB57328C
:1012300003FB0CF734BFA2EBC742B2EBC74261EB32
:1012400057310CFB0EF7B0EBC70072EB57720CFB7B
:1012500008F734BFA2EBC702B2EBC70261EB5771CC
:1012600015EB4C254FEA816141EA92114FEA826207
:101270004FEAD13742EA901206FB07FC44F1000422
:101280004FEA80604FEA1C4C0CFB0BF7D21B03FBB0
:101290000CF761EB07010CFB0EF7B0EB074072EBAC
:1012A00017420CFB08F734BFA2EB0742B2EB074230
:1012B00061EB174115EB1C154FEA813141EA924170
:1012C0004FEA823242EA90424FEA80304FEA0C768F
:1012D00044F1000448EA03434EEA0B484FF0000E85
:1012E000B2EB080C71EB030724BF624639464EEBA4
:1012F0000E0E4FF0000B0018524149414BEB0B0B07
:10130000B2EB080C71EB03077BF1000B24BF6246C4
:1013100039464EEB0E0E4FF0000B0018524149417A
:101320004BEB0B0BB2EB080C71EB03077BF1000BE3
:1013300024BF624639464EEB0E0E51EA020718BF33
:1013400046F0010616EB0E7655F1000254F100014D
:1013500003D5BDE88901BDE80088BDE88901BDE885
:101360000048B619524141EB0101A3F10103704756
:1013700080807F7E7D7C7B7A7978777676757473D2
:10138000727171706F6E6E6D6C6C6B6A6A69686891
:10139000676666656464636362616160605F5F5E27
:1013A0005E5D5D5C5C5B5B5A5A595958585757569D
:1013B0005655555554545353525252515150505002
:1013C0004F4F4F4E4E4D4D4D4C4C4C4B4B4B4A4A54
:1013D0004A49494948484847474747464646454598
:1013E00045444444444343434342424242414141D1
:1013F000002B26D4770021D01CB54FEA370703B461
:101400004FF010004FF010014FF000000FBCBDE88E
:1014100010400BF1010BBBF1010F08BF5FEA17078A
:1014200022BF12F1010211F101014FF0004143F11D
:10143000000300F0004043EA00007047F9D357086A
:10144000DAE746EA064613F1400F4FEA16461FDD7B
:1014500013F1200FDFBF16430A46002120335B4201
:10146000C8D0C3F1200746EA064602FA07F74FEA5A
:10147000164646EA0706C3F1200722FA03F201FAEC
:1014800007F721FA03F14FF0000342EA0702B1E740
:1014900046EA020646EA06464FEA164646EA0106CC
:1014A000BCBF46EA0646360C4FF000034FF0000280
:1014B0004FF000019EE72DE9C048934630B491E813
:1014C000380007C831EA400C48BF34EA430C03D562
:1014D000FFF7F2FDFFF78CFFF0BCBDE800882DE9B7
:1014E000C048934630B491E8380007C810F0804FE8
:1014F00008BF13F0804F03D100F005F8FFF778FF25
:10150000F0BCBDE8008820F07F4780EA030023F0AC
:101510007F4C07EB0C03A3F57C5300F00040A3F1D4
:10152000FE0392F0000F00F0B38095F0000F00F082
:1015300077802DE901494FEA11404FEA144621EA2C
:10154000004800FB06FC24EA064708FB06F607FBFA
:1015500008F800FB07F718EB06484CEB164C4FEA6F
:10156000124B18EB07484FEA15464CEB174022EA9E
:101570000B4E0BFB06FC25EA06470EFB06F607FBA7
:101580000EFE0BFB07F71EEB064E4CEB164C4FF016
:1015900000061EEB074E4CEB174B18EB0B0840F107
:1015A000000018EB0E0B58EB000840F100008F1AFA
:1015B0004FF000013CBFC943661B14BFB5EB040CE0
:1015C00000213CBFC943F61B4FEA17444EEA8E0E7A
:1015D00027EA04454FEA1C4704FB07622CEA074C44
:1015E00005FB07F70CFB05F604FB0CFC16EB0746A6
:1015F00042EB174216EB0C4642EB1C421BEB060675
:1016000058EB0202414146EA9E0601D5BDE8018938
:10161000B619524141EB0101A3F10103BDE8018973
:101620004FEA14454FEA114724EA054621EA074CE0
:1016300005FB07F406FB07F70CFB06F105FB0CFCAA
:1016400011EB074144EB17444FEA124711EB0C41F1
:1016500044EB1C4422EA074C05FB07F206FB07F7A4
:101660000CFB06F605FB0CFC16EB074642EB17429B
:1016700016EB0C4642EB1C456A1854F1000148BFBA
:101680007047B619524141EB0101A3F101037047C4
:1016900095F0000F37D04FEA11424FEA144721EA84
:1016A000024624EA074C02FB07F106FB07F70CFB96
:1016B00006F402FB0CFC14EB074441EB17414FEA24
:1016C000154714EB0C4441EB1C4125EA074C02FB87
:1016D00007F506FB07F70CFB06F602FB0CFC16EB06
:1016E000074645EB174516EB0C4645EB1C42121915
:1016F00051F1000148BF7047B619524141EB010159
:10170000A3F1010370474FEA14454FEA114724EA59
:10171000054621EA074C05FB07F106FB07F70CFB22
:1017200006F24FF0000605FB0CFC12EB074241EB02
:10173000174112EB0C4251EB1C4148BF7047921805
:1017400041EB0101A3F10103704700BFFEE700BFB9
:10175000FEE700BFFEE7000010B5C82000F0C0F8AB
:1017600000F01AF84FF4E13033F094FF632140F2B7
:10177000E73032F05DFB15F0E7F80649086880476E
:101780002FF09CF920F056F828F0AEF928F0D0F9A7
:1017900010BD00001000002010B540F605402DF0EF
:1017A000CDF94FF4007301221146134810F09AF955
:1017B0004FF40073032200210F4810F0BAF94FF4E0
:1017C0008063012211460C4810F08CF94FF48063BD
:1017D00003220021084810F0ACF900BF0122510299
:1017E000054810F072F900BF00BF012291020248C3
:1017F00010F06BF900BF10BD0014024000BFFEE7FF
:1018000000BFFEE700BFFEE700BFFEE708B53048B7
:10181000006840F470002E4908602E48006840F0CF
:1018200001002C49086000BF2A48006800F002004F
:101830000028F9D000BF27480830006840F0800039
:101840002449083108600020009002E00098401C04
:10185000009000985028F9D31E480830006840F0E6
:1018600090001C49083108600020009002E00098B8
:10187000401C009000985028F9D300BF154808304C
:10188000006820F00300134908310860114800681F
:10189000114908400F4908600846006820F480207C
:1018A000086000200B490831086000BF0948083073
:1018B000006800200028F9D108480649091D086081
:1018C000002004490C31086031F038F908BD0000EF
:1018D00088ED00E000380240FFFFF6FE10300024E3
:1018E00000214FF0E02211611146096921F0040145
:1018F0001161C21700EB5272D210054B1A601946E3
:1019000009684FF47A725143024A1160704700002F
:10191000000000200400002010B50121054832F02D
:10192000CAFB012805D12BF09DFA0121014832F0B4
:10193000BFFB10BD0014004010B51D491D4833F019
:1019400016FF10B31B4833F019FEC4B21A480088C2
:1019500000F40040C8B91848008800F4804060B125
:101960000A2C03D000201449088020E01248008887
:1019700040F400401049088019E00D2C06D10E48B3
:10198000008840F480400C49088010E00A48008834
:10199000C0F30D0009490C5407480088401C064953
:1019A000088008460088C72801DD0020088010BD97
:1019B0000503050000100140480000206A020020D5
:1019C00000BFFEE703B401984100009850EAC1202F
:1019D00018BF04204A0D18BF40F0010040F2FF720A
:1019E000B2EB515F08BF40F00200012808BF05209C
:1019F00002B0704770B50446002508E02168481C15
:101A000020600878303805EB850100EB410521683E
:101A1000087800F004F80028F0D1284670BD01468F
:101A2000302903DB392901DC012070470020FCE765
:101A300030380A2801D2012070470020704700008A
:101A400010B54421074801F02AF800221E2106485B
:101A50002BF070FA0549086002F0F4FB00200449FD
:101A6000087010BD3C1E002025430008C80100205E
:101A7000C40100202DE9F04F87B007460C461546FB
:101A80002946204600F066F920B94FF0FF3007B034
:101A9000BDE8F08F00222946204600F0FDF808B18D
:101AA0000020F4E70026204616F017FF401E00B283
:101AB0000490204616F082FE401E00B20390688813
:101AC0006188401A0FFA80FABAF1000F16DD2088FB
:101AD000ADF814006088ADF81600A088ADF81800C5
:101AE0006088504400B2ADF81A003046711C4EB206
:101AF00007EBC0000599016006994160E88861889C
:101B0000411A0398401A0FFA80FBBBF1000F1CDD4D
:101B1000B5F90600B4F90610884216DA2088ADF847
:101B20001400E888ADF81600A088ADF81800E88821
:101B3000584400B2ADF81A003046711C4EB207EBA3
:101B4000C0000599016006994160B5F90200B4F939
:101B50000210884202DDB5F9020001E0B4F902008A
:101B60008046B5F90600B4F90610884202DAB5F9E4
:101B7000060001E0B4F9060002900298A0EB08000C
:101B80000FFA80F928882188401A00B20190019844
:101B900000281BDDB9F1000F18DD2088ADF8140016
:101BA000ADF8168021880198084400B2ADF81800FD
:101BB00008EB090000B2ADF81A003046711C4EB2B5
:101BC00007EBC0000599016006994160A88821884B
:101BD000411A0498401A00B200900098002818DDBD
:101BE000A888ADF81400ADF81680A98800980844BC
:101BF00000B2ADF8180008EB090000B2ADF81A0009
:101C00003046711C4EB207EBC00005990160069981
:101C1000416030463BE730B50346B1F90040B2F9C8
:101C20000050AC4202DDB1F9004001E0B2F90040E1
:101C30001C80B1F90240B2F90250AC4202DDB1F9A8
:101C4000024001E0B2F902405C80B1F90440B2F90F
:101C50000450AC4202DAB1F9044001E0B2F90440A8
:101C60009C80B1F90640B2F90650AC4202DAB1F9F3
:101C7000064001E0B2F90640DC800120B3F90040E3
:101C8000B3F90450AC4205DCB3F90240B3F9065095
:101C9000AC4200DD002030BDF8B504460D461646C6
:101CA0000027B4F90000B5F90010884212DBB4F93E
:101CB0000200B5F9021088420CDBB4F90400B5F952
:101CC0000410884206DCB4F90600B5F90610884213
:101CD00000DC01270FB90020F8BD0EB90120FBE799
:101CE0002088ADF800006088ADF8020032466946F1
:101CF000284600F0A7F808B90020EDE7A088ADF865
:101D000000006088ADF8020032466946284600F0BF
:101D100099F808B90020DFE72088ADF80000E088D6
:101D2000ADF8020032466946284600F08BF808B943
:101D30000020D1E7A088ADF80000E088ADF80200EF
:101D400032466946284600F07DF808B90020C3E70E
:101D50000120C1E70246B2F90000B1F9043098420F
:101D600013DCB2F90400B1F9003098420DDBB2F98E
:101D70000200B1F90630984207DCB2F90600B1F969
:101D80000230984201DB012070470020FCE7F8B5E3
:101D900004460D461646B4F90400B5F90010884211
:101DA00011DBB4F90600B5F9021088420BDBB4F977
:101DB0000000B5F90410884205DCB4F90200B5F959
:101DC0000610884201DD0120F8BD0EB90020FBE7B6
:101DD0002088ADF800006088ADF802003246694600
:101DE000284600F02FF808B10020EDE7A088ADF8F4
:101DF00000006088ADF8020032466946284600F0CF
:101E000021F808B10020DFE72088ADF80000E08865
:101E1000ADF8020032466946284600F013F808B1D2
:101E20000020D1E7A088ADF80000E088ADF80200FE
:101E300032466946284600F005F808B10020C3E79D
:101E40000120C1E72DE9FC5F05460E4614464FF020
:101E5000000AB6F90000B5F90010884213DBB6F9A4
:101E60000000B5F9041088420DDCB6F90200B5F99E
:101E70000210884207DBB6F90200B5F90610884265
:101E800001DC4FF0010ABAF1000F02D10020BDE8D9
:101E9000FC9F002C01DC0120F9E7284616F01DFD0F
:101EA000834600EBDB704710284616F087FC83461C
:101EB00000EBDB704FEA6008474501DA384600E086
:101EC000404681464C4500DD4C462888ADF8000070
:101ED0002888204400B2ADF804006888ADF80200FC
:101EE0006888204400B2ADF80600002231466846FA
:101EF000FFF7A8FF80B1BDF80400204400B2ADF8A0
:101F00000400BDF80600204400B2ADF806003146DA
:101F1000684627F0C1FDBAE7E888001B00B2ADF8BB
:101F20000200E888ADF80600002231466846FFF757
:101F300089FF80B1BDF80400204400B2ADF8040070
:101F4000BDF80200001B00B2ADF802003146684641
:101F500027F0A2FD9BE7A888001B00B2ADF80000A7
:101F6000A888ADF80400002231466846FFF76AFFF2
:101F700080B1BDF80000001B00B2ADF80000BDF854
:101F80000200001B00B2ADF802003146684627F09F
:101F900083FD7CE76888ADF802006888204400B2C1
:101FA000ADF80600002231466846FFF74BFF80B1CE
:101FB000BDF80000001B00B2ADF80000BDF806003F
:101FC000204400B2ADF806003146684627F064FDB3
:101FD0005DE701205BE710B5B1F90030B2F90040D0
:101FE000A34202DAB1F9003001E0B2F90030038017
:101FF000B1F90230B2F90240A34202DAB1F902307B
:1020000001E0B2F902304380B1F90430B2F9044082
:10201000A34202DDB1F9043001E0B2F9043083805B
:10202000B1F90630B2F90640A34202DDB1F906303B
:1020300001E0B2F90630C38010BD0000F8B50546D6
:102040002AF000FF07460020009035B14C49E868AF
:10205000086028462BF086F803E019F009FB484990
:10206000086047490968086927F0AAFB44480068E6
:10207000406920B142490968486927F0A1FB4049FD
:102080000968C86927F09CFB3D490968086A27F080
:1020900097FB3B480068006938B900203849096857
:1020A000A1F8500100BF00BFF8BD27F0BFFD2DF023
:1020B00079FC2DF0B1F832480068B0F850010028E2
:1020C00056D02F4800680068007C00F0010040B343
:1020D0002B4800680068C068406810B3002419E00D
:1020E0002748006800F59870005D00B110E02448B2
:1020F000006800F5AC7000F034FD0646204800682A
:10210000303000EBC400016831604068706000BF8F
:10211000601C84B21A480068B0F85001A042DFDCAD
:1021200000BF4FF4807116480068303021F0F0FB9A
:1021300020211348006800F5987021F0E9FB002089
:102140000F490968A1F8500138462AF06DFE009049
:102150000B4800680068406A50B10949096808687E
:102160000749096809684B6A06490A68009998474F
:1021700021F046F900F03EF800F006F800BF93E7C2
:10218000800000207C00002010B5002416E0C4EB85
:10219000C4000C4951F8200030B1C4EBC401094A15
:1021A00052F8210021F0DEF9C4EBC401054A02EB2C
:1021B00081001C2121F0ACFB601CC4B2042CE6DBC6
:1021C00010BD0000181F00200146094A10680BE0EE
:1021D00042688A4202D002688A4204D1027E22F01A
:1021E0000102521C027640690028F1D170470000BC
:1021F000540000207047000010B50421014800F091
:102200004EFC10BD301E002010B52021014800F00A
:1022100046FC10BD481E00202DE9FF4704460D4630
:1022200016461F46DDE90C896FB9B8F5807F0AD1E3
:10223000002020806080681E00B2A080701E00B266
:10224000E080BDE8FF87002000900190029003909D
:10225000ADF80450ADF80A60ADF80C50ADF80E6062
:102260004B4642463946684627F04CFB4B464246B1
:10227000394601A827F046FB4B464246394602A89C
:1022800027F040FB4B464246394603A827F03AFB6D
:10229000BDF90000BDF90410884202DABDF9000062
:1022A00001E0BDF90400BDF90810BDF90C20914210
:1022B00002DABDF9081001E0BDF90C1088420BDA12
:1022C000BDF90000BDF90410884202DABDF9000032
:1022D0000DE0BDF904000AE0BDF90800BDF90C10DD
:1022E000884202DABDF9080001E0BDF90C00801E49
:1022F00000B22080BDF90000BDF90410884202DD63
:10230000BDF9000001E0BDF90400BDF90810BDF9F8
:102310000C20914202DDBDF9081001E0BDF90C105E
:1023200088420BDDBDF90000BDF90410884202DDD2
:10233000BDF900000DE0BDF904000AE0BDF9080098
:10234000BDF90C10884202DDBDF9080001E0BDF9BD
:102350000C00801C00B2A080BDF90210BDF906007F
:10236000814202DABDF9020001E0BDF90600BDF9C3
:102370000A20BDF90E108A4202DABDF90A1001E006
:10238000BDF90E1088420BDABDF90210BDF9060046
:10239000814202DABDF902000DE0BDF906000AE053
:1023A000BDF90A10BDF90E00814202DABDF90A003A
:1023B00001E0BDF90E00801E00B26080BDF9021080
:1023C000BDF90600814202DDBDF9020001E0BDF960
:1023D0000600BDF90A20BDF90E108A4202DDBDF9E2
:1023E0000A1001E0BDF90E1088420BDDBDF90210A4
:1023F000BDF90600814202DDBDF902000DE0BDF924
:1024000006000AE0BDF90A10BDF90E00814202DDA6
:10241000BDF90A0001E0BDF90E00801C00B2E080A9
:1024200000BF0EE72DE9F743054616460024134C7E
:102430002AF008FD8046334629462046019A1EF0C0
:10244000D9FC07465FB900BF00BF2C21204621F010
:102450005FFA4FF00040A0620020BDE8FE8300203C
:10246000A062E06918B940462AF0DEFCE061E0694C
:1024700008B90120E0612046EFE700006C1E002053
:1024800010B51421114800F00AFB1EF065FC04464B
:1024900000BF1CB900BF00BF00BFFEE700BF14B9FA
:1024A00000BF00BF10BD0A4920461EF03DFD09498E
:1024B00020461EF03BFD084920461EF039FD074925
:1024C00020461EF02FFD00BFECE70000541E002048
:1024D00009050208DD090208650C0208D10402089A
:1024E00070B504460D461021284621F011FA2068E7
:1024F0000078012804D1A08A2880E08A68800CE056
:1025000020680078022802D1E068686005E0206851
:102510000078042801D10A2068602068406820B152
:10252000206829464268904701E000BF00BF70BDA7
:102530002DE9FE4F0446A08A18B9E08A08B9BDE823
:10254000FE8FE66A96B920460DF03AFA064606B9BD
:10255000F5E7204611F06EF80022092130461DF003
:102560001DF86078C0F3400000B1E8E700274FF4A1
:102570008078B14616E00021484624F0FBFD38443F
:1025800007B20021484624F031FE8246C0170AEB0C
:102590001060001200FB08F00FFA80F8484623F0A4
:1025A0007FF98146B9F1000FE5D117B9B8F5807F01
:1025B00011D0784207B24FF4803090FBF8F00FFA58
:1025C00080F8002000906B464246394604F1140022
:1025D00027F098F900BF00200290019094F8400085
:1025E00000F00F00032812D1304623F077FA82461C
:1025F000304623F0FBF9834603200090B4F9141011
:1026000053465A4630460CF015FC029012E0304614
:1026100023F0E6FA8246304623F05AF983460C202E
:102620000090B4F916105B46524630460CF002FC9E
:10263000019000BF304623F0ABF9054605F00100DC
:1026400028B9BDF90800002801DD0020029005F03E
:10265000020028B9BDF90800002801DA0020029024
:1026600005F0040028B9BDF90400002801DD0020B0
:10267000019005F0080028B9BDF90400002801DA2E
:102680000020019001AA02A920462DF065FEBDF9A7
:102690000420BDF90810304600F0FCFA6078C0F361
:1026A000400000B14BE7208BBDF80810084401B290
:1026B0002183608BBDF80410084401B2618300BF20
:1026C0003DE72DE9F84F0446D4F82CB0BBF1000FDC
:1026D00001D1BDE8F88F94F8400000F00F0000B978
:1026E000F7E71EF0C9FE06463068477E402158468F
:1026F00024F036FF10B90021E183A183584623F06E
:102700005BFA8046584623F061FA054694F840008B
:1027100000F00F000C2843D10021A1831DBBB4F9A8
:102720001E00C7F164014843642190FBF1F001B23F
:10273000E183584623F0CCF88146584623F050FAFE
:1027400082460C200090B4F91E104B465246584663
:102750000CF070FBE083B4F91E20002319465846A4
:1027600026F0AAFA69E020462DF04DFE00900021E7
:10277000E1836A4620462DF0EFFDBDF9003041F6B9
:10278000FF72514258460DF00DFB8146BDF8000026
:10279000484402B201230021584626F08DFA4CE04D
:1027A00094F8400000F00F00032846D10021E18397
:1027B000B8F1000F23D1B4F91C00C7F164014843FC
:1027C000642190FBF1F001B2A183584623F00EF989
:1027D0008146584623F082F9824603200090B4F9DE
:1027E0001C1053464A4658460CF024FBA083B4F90B
:1027F0001C1000231A46584626F05EFA1DE02046BB
:102800002DF0E6FD00900021A183002269462046BC
:102810002DF0A2FDBDF9003041F6FF72514258463D
:102820000DF026FA8146BDF80000484401B20123AC
:102830000022584626F040FA00BFA08B002860D145
:10284000E08B00285DD11DBB584623F0C9F98146B5
:10285000584623F03DF88246B9F1000F02DCBAF188
:10286000000F14DDB9F1000F06DA01234A460021FA
:10287000584626F021FA0AE0BAF1000F07DA0123E0
:10288000CAF1000002B20021584626F015FA00BF36
:10289000B8F1000F23D1584623F0A8F881465846D6
:1028A00023F01CF98246B9F1000F02DCBAF1000FE7
:1028B00014DDB9F1000F06DA01230022494658461B
:1028C00026F0FAF90AE0BAF1000F07DA0123002234
:1028D000CAF1000001B2584626F0EEF900BF3246B8
:1028E0000A2158461CF05AFE6078C0F3400000B13F
:1028F000EFE694F8400020F00F0184F8401000212A
:10290000E16200BFE5E62DE9FF4104460F4614B938
:1029100018F0AEFE04460CB9BDE8FF81204618F061
:1029200040FF00B9F8E794F82800C0F3800010B128
:1029300000BF00BFF0E71FB90020A4F85001EBE78B
:102940000020ADF80800ADF80A00204618F0A8FEF7
:10295000401E00B2ADF80C00204618F007FF401EE4
:1029600000B2ADF80E0002AA39466846FFF753F9E7
:10297000064606B9D0E72068007CC0F3400060B18D
:1029800002982063039860630120A4F850016068F6
:1029900010B160682AF0F2FBBEE72068806918B1C8
:1029A000206869468269904700250BE004F13000F9
:1029B00000EBC50100226846FFF76EF900B1ABE7F6
:1029C000681C85B2B4F85001A842EFDCB4F850019D
:1029D000202809DAB4F8502104F1300101EBC200DB
:1029E000694615F052FE0BE00020A4F85001B4F83F
:1029F000502104F1300101EBC20002A915F045FE9F
:102A0000B4F85001401CA4F85001606810B160682F
:102A10002AF0B4FB00BF7FE770B50546284600F0FA
:102A200013F8044600260CE02146284600F024F85E
:102A300006462146284600F0C0F8204620F092FDC8
:102A40003446002CF0D170BD014609B90020704712
:102A50004868FCE770B5064600243046FFF7F4FFEF
:102A6000054605E0641C2946304600F005F8054699
:102A7000002DF7D1204670BD02460B461068001DA0
:102A800003441868704702460B46106803441868F0
:102A90007047014609B9002070478868FCE70022AA
:102AA00042608260CA1C22F003010160704770B569
:102AB0000446216801F1080020F076FC0546A5B126
:102AC0000022294620462BF03BFD2946204662681D
:102AD0002BF028FD606820B12A46204661682BF063
:102AE0002FFD6560A06800B9A560284670BD2DE97E
:102AF000F04106460D4606B115B90020BDE8F0814B
:102B00003046FFF7A1FFA84206D13046FFF7CFFFBE
:102B1000044624BB0020F1E7316801F1080020F0F1
:102B200043FC04460CB90020E8E729463046FFF78D
:102B3000AAFF07462246394630462BF0F3FC3A46B8
:102B4000214630462BF0FCFC2246294630462BF02D
:102B5000F7FC2A46214630462BF0E4FC00BF204615
:102B6000CCE770B50446216801F1080020F01CFC98
:102B70000546A5B10022294620462BF0D3FC294664
:102B80002046A2682BF0DCFCA06820B12A46204633
:102B9000A1682BF0C7FCA560606800B96560284695
:102BA00070BD014609B901207047486818B98868A6
:102BB00008B90120F8E70020F6E72DE9F0410446C6
:102BC0000D460CB9BDE8F0812046FFF73DFFA84255
:102BD0000FD129462046FFF74FFF6060606810B9AB
:102BE0000020A0602FE00022204661682BF0A8FCA6
:102BF00029E02046FFF74DFFA8420FD12946204685
:102C0000FFF741FFA060A06810B9002060601AE0E3
:102C100000222046A1682BF085FC14E029462046BE
:102C2000FFF731FF064629462046FFF725FF0746F6
:102C30003A46314620462BF075FC3246394620464E
:102C40002BF07EFC00BF00BFBCE710B50446206837
:102C5000806818B120682146826890472068006823
:102C600028B12068006820602046FFF7EEFF10BD05
:102C70000146886818B18868B0F9160070470020CE
:102C8000FCE70146886818B18868807E8009704733
:102C90000020FCE72DE9F04104460D4616461DB91B
:102CA00016B90120BDE8F081204621F045FDA0685D
:102CB000008A284400B2A1680882A068408A304493
:102CC00001B2A0684182012332462946204625F000
:102CD000E3F800220B2120461CF060FC0746012F80
:102CE00001D03846DEE7204624F0FEFF0120D9E778
:102CF000F7B582B004460E4614B9049805B0F0BD8D
:102D000000BF62223146204624F0BAF80190019DAE
:102D100000BFBDB12868A8B100BF6322314620467C
:102D200024F0AEF801900198C0B207464FB13A4680
:102D30002B682846049998470190BDF80400ADF827
:102D4000100000BF0498D9E72DE9F04F95B0044674
:102D50008B4691469A461E9D608C20F008000830F4
:102D60006084A4F820902A895946204624F088F8E7
:102D70001490A4F820A02A895946204624F080F80F
:102D80001390608C20F008006084DDE91310884205
:102D90000CD1DDE91310884208D1BDF85000BDF810
:102DA0004C10884202D115B0BDE8F08FA4F82090F5
:102DB0002A895946204624F063F81490A4F820A0EC
:102DC000594620460EF0F0FD12902989129A10689B
:102DD000149A28F0E5FC28890B2833D147F6FF71B7
:102DE0001498884202D0139888422BD1204624F0B0
:102DF0005AFB009000EBD0704710204622F000FDF7
:102E0000009000EBD0704FEA600847F6FF7114980D
:102E1000884208D1781C08F10101884200DA01E0FB
:102E200008F10100149047F6FF711398884208D109
:102E3000781C08F10101884200DA01E008F1010084
:102E4000139000BF2348FFF732FE064600BF1EB9AD
:102E500000BF00BF00BFFEE700BF06B9A3E714989C
:102E6000F0601398306134602889B080C6F808B0EB
:102E700001A814F0CFFC314601A814F07DFD1649DD
:102E800001A814F04AFD1548039000BF144901A899
:102E900014F051FDFF22002101A814F05DFD2988E6
:102EA00001A814F04FFD698801A814F031FDE8680D
:102EB000089000BF01A8002190F8422061F30002B1
:102EC00080F8422000BF2869079001A814F06CFD2B
:102ED00000BF68E7601E0020CD4C0308754F030853
:102EE000A54E030810B514210148FFF7D8FD10BD09
:102EF000601E00202DE9FE4F04460F4690464FF01D
:102F0000000900254CE1E06800EBC5004068C0F313
:102F1000406000B143E1E16801EBC501496821F07F
:102F20007F4026F013FC064626EA070008B9012078
:102F300000E00020029026EA080008B9012000E025
:102F400000200190DDE90101814270D0E06850F875
:102F500035A04FF0000B6A461021504627F0F8FFCD
:102F600010B14FF0010B98E06A461121504627F04E
:102F7000EFFF10B14FF0010B8FE06A46122150466F
:102F800027F0E6FF10B14FF0010B86E06A461321EF
:102F9000504627F0DDFF10B14FF0010B7DE06A468F
:102FA0001521504627F0D4FF10B14FF0010B74E00B
:102FB0006A461421504627F0CBFF10B14FF0010BA9
:102FC0006BE06A460A21504627F0C2FF10B14FF06D
:102FD000010B62E06A466B21504627F0B9FF10B141
:102FE0004FF0010B59E06A466C21504627F0B0FFC4
:102FF00010B14FF0010B50E06A460121504627F016
:10300000A7FF10B14FF0010B47E06A46042150467C
:1030100027F09EFF10B14FF0010B3EE06A460221FF
:10302000504627F095FF18B14FF0010B35E0B5E0A1
:103030006A460321504627F08BFF10B14FF0010B79
:103040002BE06A460521504627F082FF10B14FF071
:10305000010B22E06A460621504627F079FF10B1A5
:103060004FF0010B19E06A463221504627F070FFFD
:1030700010B14FF0010B10E06A466E21504627F068
:1030800067FF10B14FF0010B07E06A466D21504613
:1030900027F05EFF08B14FF0010BBBF1000F02D02B
:1030A0000320BDE8FE8F6A466921504627F050FF95
:1030B00010B14FF0020970E06A466A21504627F0CD
:1030C00047FF10B14FF0020967E06A466E21504693
:1030D00027F03EFF10B14FF002095EE06A466D2115
:1030E000504627F035FF10B14FF0020955E06A460F
:1030F0003721504627F02CFF10B14FF002094CE069
:103100006A463821504627F023FF10B14FF00209DC
:1031100043E06A463521504627F01AFF10B14FF0C0
:1031200002093AE06A464021504627F011FF10B1EB
:103130004FF0020931E06A464521504627F008FF6A
:1031400010B14FF0020928E06A464121504627F0AD
:10315000FFFE10B14FF002091FE06A4642215046BF
:1031600027F0F6FE10B14FF0020916E06A4643213F
:10317000504627F0EDFE10B14FF002090DE06A460F
:103180004921504627F0E4FE10B14FF0020904E057
:10319000B9F1000F01D14FF0010900BF00BF6D1C54
:1031A000608CC0F30510A8423FF6ADAE484678E704
:1031B0000148006870470000800000207047014609
:1031C000C1F30412072A00DD0722D0B270470000C5
:1031D00001464FF6FF70814201D11F20704709B9A7
:1031E0000020FBE7712902DA0948405CF6E7A1F10B
:1031F000710081B20748006838B107480068814211
:1032000003D204480068405CE8E70020E6E70000DD
:1032100060CE0308EC0100200002002010B5182148
:103220000348FFF73CFC012029F0C0FE10BD000060
:103230000C1E00202DE9F04105460F4616460DB93B
:10324000BDE8F0812846FDF72FFA8046394628462A
:103250000A4A126890470746E8193146074A126839
:10326000904706463C4603E0A019285C2855641C9C
:10327000A8EB0600A042F7D200BFE1E73002002031
:103280002DE9F04106460C4617461D4629463046B4
:10329000084A126890472060206830B12968881970
:1032A0000021044A1268904700E000203860BDE821
:1032B000F0810000280200202DE9F04F87B004467D
:1032C0000F4692469846DDE910560DB10020288041
:1032D0001CB9002007B0BDE8F08F207808B90020A5
:1032E000F8E70FB90020F5E74FF0000906F00200FB
:1032F00010B906F0040098B1002000E0401C215CE9
:103300000A2905D0215C0D2902D0215C0029F5D1C4
:10331000215C01B1401C15B14FF0FF312980D9E784
:1033200006F0020008B141F6FF78002006900590F3
:1033300038E000200490059808B9012000E0002042
:1033400006A904AACDE90062CDE90210059960182A
:103350004346524639462AF091F883460498A8EB32
:1033600000000FFA80F8049848440FFA80F9BBF186
:10337000000F00D11CE005985844059020780A28D9
:1033800002D020780D2800D112E00598205C0A2890
:1033900003D00598205C0D2803D10598401C0590AA
:1033A00006E000BF0598205C10B1B8F1000FC0DC4A
:1033B00000BF059870B905A92046094A12689047D0
:1033C000834635B10022594638461CF06BFA0FFA95
:1033D00080F900BF0DB1A5F8009005987AE70000CC
:1033E000280200202DE9F04706468846174606B118
:1033F0000FB9BDE8F0873046FDF756F981463846EB
:10340000FDF752F9044604B9F3E704EB090A414613
:1034100030460B4A126890478046554603E0281B09
:10342000305C70556D1E08EB0400A842F7D906EB1E
:1034300008002246394620F025FA00BFD9E70000EF
:1034400030020020024600200FA31B788B4211D1CE
:1034500013781BB90123137001200BE01378012BA3
:1034600002D10023137005E01378022B02D1002350
:10347000137001201378012B04D1202901D10223DC
:1034800013700120704700002300000073B582B064
:10349000064603980190324600210846019B2AF017
:1034A0000DFB0546002001900024681C1FF07CFFE6
:1034B000044600BF1CB900BF00BF00BFFEE700BF4D
:1034C00014B9002004B070BD002060553246691C5C
:1034D0002046039B2AF0F2FA2046F3E72DE9F04755
:1034E00081460E4614461F46DDF820A035461BE0F7
:1034F000600800FB075529464846D047B0F1000850
:1035000009DD04F0010080F00100C0EB5404E8196B
:103510000546064608E0B8F1000F02DA64083546B1
:1035200002E02846BDE8F087002CE1D10020F9E751
:103530002DE9FF4F85B08346DDE9158ADDE91349A2
:10354000DDE91775129E05F00200F8B94FB105F0DC
:10355000010030B1B9F1000F02D105F00C0000B14B
:103560007F1E03E030222046641C3254544501D2B1
:10357000202CF7D303E030222046641C325405F09F
:10358000010018B1BC4201D2202CF4D305F0100088
:10359000B0B305F4806050B94CB1544501D0BC4281
:1035A00005D1641E1CB1B8F1100F00D1641EB8F132
:1035B000100F09D105F0200030B9202C04D2782258
:1035C0002046641C325415E0B8F1100F09D105F003
:1035D000200030B1202C04D258222046641C3254E2
:1035E00008E0B8F1020F05D1202C03D26222204658
:1035F000641C3254202C03D230222046641C3254E6
:10360000202C16D2B9F1000F04D02D222046641CC4
:1036100032540EE005F0040020B12B222046641C39
:10362000325406E005F0080018B120222046641C40
:103630003254CDE90275CDE90064584606A90EC999
:1036400000F0A2F809B0BDE8F08F2DE9FF4F8FB070
:103650008046DDE91FABDDE91D96219D1C9C0027FE
:103660000CB925F0100505F4806000B1E4B100BF8D
:10367000B4FBF6F106FB1141C8B20A2802DA00F1E8
:10368000300107E005F0200109B1412100E061218E
:1036900001440A39CBB239467F1C07AA5354B4FB04
:1036A000F6F40CB1202FE3D307A8CDE904AB8DE8E5
:1036B000810203960695404610A90EC9FFF738FF10
:1036C00013B0BDE8F08F2DE9FF4F8FB0DDE9217B0E
:1036D000DDF89080209EDDE91C454FF000090021B7
:1036E00084EA01006940084301D128F0100808F479
:1036F000806028B1002184EA0100694008432DD090
:1037000000BF32463B4620462946FCF7E4FD02F066
:10371000FF0ABAF10A0F02DA0AF1300007E008F0F6
:10372000200008B1412000E0612050440A38C2B2B4
:10373000484609F1010907A90A5432463B4620468A
:103740002946FCF7C8FD04460D46002184EA010025
:103750006940084302D0B9F1200FD2D32398CDE9B4
:10376000036BCDE9050807A91E98CDE90019029061
:103770000FA80FC8FFF7DCFE13B0BDE8F08F9A4228
:1037800000D28854704770472DE9FF5F0546144604
:10379000DDE90EA6DDE91087A34607F0020078B93F
:1037A00007F0010060B9B14607E02246641C202002
:1037B000039B0199A84709F10109C145F5D300BF51
:1037C00008E02246641C711E0E461AF80100039B95
:1037D0000199A847002EF4D107F0020050B105E08E
:1037E0002246641C2020039B0199A847A4EB0B00F0
:1037F0004045F5D3204604B0BDE8F09F00BF7047B8
:103800002DE9FF4F8BB0074600250C9800B9FA4F01
:10381000EAE20E98007825280AD02A466D1C0E99F7
:103820000878DDE90C13B8470E98401C0E90DBE2D7
:103830000E98401C0E90002400BF0E9800782B2894
:1038400019D004DC20281ED023282CD123E02D28D9
:1038500009D0302827D144F001040E98401C0E9066
:1038600001200A9022E044F002040E98401C0E90C1
:1038700001200A901AE044F004040E98401C0E90B7
:1038800001200A9012E044F008040E98401C0E90AB
:1038900001200A900AE044F010040E98401C0E909B
:1038A00001200A9002E000200A9000BF00BF0A98A1
:1038B0000028C2D180460E990878FEF7B0F820B1F2
:1038C0000EA8FEF797F8804612E00E9800782A2896
:1038D0000ED1189901C91891002804DA44F00204A5
:1038E000C0F1000800E080460E99491C0E9100BF0F
:1038F0004FF000090E9800782E281FD144F4806400
:103900000E98401C0E900E990878FEF788F820B1AA
:103910000EA8FEF76FF8814610E00E9800782A286E
:103920000CD1189901C91891002801DD014600E069
:10393000002189460E99491C0E9100BF0E9800780F
:103940006C280AD004DC682816D06A2835D128E013
:10395000742820D07A2830D129E044F480740E985D
:10396000401C0E900E9800786C2804D144F400742A
:103970000E98401C0E9021E044F080040E98401CEC
:103980000E900E980078682804D144F040040E98F8
:10399000401C0E9012E044F480740E98401C0E906F
:1039A0000CE044F400740E98401C0E9006E044F4C1
:1039B00080740E98401C0E9000E000BF00BF0E986F
:1039C000007869281DD00EDC622821D006DC25286D
:1039D0007ED050281AD058287BD115E0632879D0A2
:1039E0006428F9D10CE0732875D004DC6F280ED060
:1039F0007028F1D109E0752804D07828ECD102E0D4
:103A000000BF00BF00BF00BF00BF00BF00BF00BFBE
:103A10000E980078782803D00E980078582801D1A5
:103A2000102623E00E980078702803D00E980078B6
:103A300050280CD1102644F0100444F480740E98E1
:103A40004078562812D10E98401C0E900EE00E9829
:103A500000786F2801D1082608E00E9800786228C7
:103A600001D1022602E00A2624F010040E98007804
:103A7000582803D00E980078502801D144F0200433
:103A80000E980078692805D00E980078642801D037
:103A900024F00C0404F4806008B124F001040E98B2
:103AA0000078692803D00E98007864287CD104F44B
:103AB0000070B8B31898C01D20F007001890D0E926
:103AC00000AB189A083218920020CDE9069803E05E
:103AD00073E17CE1F2E01CE1CDE904600894BAEB0B
:103AE00000017BEB000001DA012000E00020002152
:103AF00002900846B1EB0A0170EB0B0002DA504667
:103B0000594605E000200146B0EB0A0061EB0B01CD
:103B1000CDE900012A463846DDE90C13FFF7D3FD55
:103B20000546C7E0FFE704F48070D0B1189850F85C
:103B300004AB18904FEADA70CDE903980296059429
:103B4000BAF1000F01DD514601E0CAF10001CDE9F3
:103B500000102A463846DDE90C13FFF776FD0546CE
:103B6000A8E004F0400028B1189810F8041B189041
:103B7000C8B20DE004F0800028B1189830F8041B9A
:103B8000189008B204E0189800681899091D189157
:103B900082464FEADA70CDE9039802960594BAF1AD
:103BA000000F02DD514602E00BE0CAF10001CDE951
:103BB00000102A463846DDE90C13FFF746FD05469E
:103BC00078E00E980078562818D1189850F804AB71
:103BD0001890DAF804000068099009980090DAF863
:103BE00000300D98421B0C9841193846FFF708FE2B
:103BF0000544002009905DE08737000804F4007058
:103C0000D0B11898C01D20F00700CDE9069808949F
:103C100018900020CDE904600290189903C9189A01
:103C200008321892CDE900012A463846DDE90C1326
:103C3000FFF749FD05463DE004F4807098B100228D
:103C4000CDE9039802960594189800681899091D03
:103C5000CDE9000218912A463846DDE90C13FFF73A
:103C6000F4FC054626E004F0400028B1189810F84E
:103C7000041B1890C8B20DE004F0800028B1189819
:103C800030F8041B189088B204E01898006818995E
:103C9000091D189182460020CDE900A0CDE90398C6
:103CA000029605942A463846DDE90C13FFF7CDFC51
:103CB000054600BF0E98401C0E9093E0012604F0CC
:103CC000020050B905E02A466D1C2020DDE90C13E6
:103CD000B8473046761C4045F5D3189911F8043B97
:103CE000D8B22A466D1C1891DDE90C13B84704F0D0
:103CF000020050B105E02A466D1C2020DDE90C13BE
:103D0000B8473046761C4045F5D30E98401C0E90BF
:103D100068E0189850F804AB18905046B9F1000FBD
:103D200001D0494601E04FF0FF310A46014600E06C
:103D3000491C0B781BB1131EA2F10102F8D10E1A17
:103D400004F4806028B14E4501D2304600E0484678
:103D5000064604F0020050B905E02A466D1C2020FA
:103D6000DDE90C13B8473046761C4045F5D306E034
:103D70001AF8010B2A466D1CDDE90C13B8479AF8B6
:103D8000000040B104F480600028F1D0B9F10000D7
:103D9000A9F10109ECD104F0020050B105E02A4676
:103DA0006D1C2020DDE90C13B8473046761C4045D9
:103DB000F5D30E98401C0E9014E02A466D1C252069
:103DC000DDE90C13B8470E98401C0E900AE02A4615
:103DD0006D1C0E990878DDE90C13B8470E98401C4D
:103DE0000E9000BF00BF00BF0E98007800287FF43F
:103DF00010AD0D98854201D2284601E00D98401E75
:103E000002460020DDE90C13B84728460FB0BDE894
:103E1000F08F2DE9F04104460E46002774B131467B
:103E2000204600F02DF80546B5F5803F05D20C2D53
:103E300001D9284600E00C20074600BF3846BDE8FF
:103E4000F081024600BF481E084018B100BF00BF05
:103E500000BFFEE700BF481E1040101A704710B5A3
:103E600002464B1E13444C1E23EA040000BF4B1EA7
:103E70000B401BB100BF00BF00BFFEE700BF10BD7D
:103E8000024600BF481E084018B100BF00BF00BF77
:103E9000FEE700BF481E10444B1E984370470000C9
:103EA0002DE9F04180460E464446012060860025FB
:103EB00000270DE056F8270025A1FCF76DFC10B196
:103EC000681C85B202E0608E401C6086781C87B258
:103ED00056F8270020B156F8270000780028E9D1CD
:103EE000208EA84201D1BDE8F081A06A20B1A06A6D
:103EF0001FF038FB0020A062E06A20B1E06A1FF0EA
:103F000031FB0020E062E8001FF04EFAA06200BF23
:103F1000A06A18B900BF00BF00BFFEE700BF68007D
:103F20001FF042FAE06200BFE06A18B900BF00BFAC
:103F300000BFFEE700BFA06A08B1E06A00B9002533
:103F40006900E06A1FF0E4FC258600BFCBE70000B3
:103F50000A0000002DE9F84F81460E46924699F876
:103F6000090000F00700022801D1304600E0504669
:103F70008346564501DD304600E0504607460320A3
:103F800000EB470020F0030000F1100539480068FD
:103F900039490968A0EB0108002405EB08003749FE
:103FA0000968884206D233480468606820F00040FF
:103FB00060603AE031480068854221D813E04FF054
:103FC000FF300090002269462D4810F0A9F8002229
:103FD00069462C4810F0A4F826480068264909686C
:103FE000A0EB010800BF08EB0500244909688842DE
:103FF000E5D820480468606820F00040606014E064
:1040000028461FF0D1F9044600BF1CB900BF00BF0D
:1040100000BFFEE700BF14B90020BDE8F88F60685C
:1040200020F0004000F100406060324659464846AA
:1040300002F048F92060606800F04040401C606079
:10404000606820F080406060A781A4F80EB06068CE
:10405000C00F20B1204600F11001A16008E0054822
:1040600000681030A06003480068284401490860D7
:104070002046D2E788000020E801002084000020CC
:10408000A3F90008A1410108F0B585B006460D4628
:104090003446002004900390029065480088A842AE
:1040A00002D0FF20634908706148058094F83C0005
:1040B00000F0030020B1012838D0022866D000BFEC
:1040C00094F83C0000F003005A49097888421BD05C
:1040D0002620005D00EB001000EB4000142190FB57
:1040E000F1F0554908702720005D00EB001000EB4F
:1040F0004000142190FBF1F05049087094F83C0006
:1041000000F003004B49087002A803A9CDE9001094
:1041100005EB45014FF6FF7202EA410004AB474947
:104120000A78454909780BF00CF95FE094F83C00F7
:1041300000F003003F49097888421AD0A08C00EBB8
:10414000400040024FF4B471B0FBF1F03C490880EC
:104150002720005D00EB001000EB4000142190FBD5
:10416000F1F03649087094F83C0000F00300314942
:10417000087002A803A9CDE90010E9B204AB2F48EA
:1041800002782F4800880BF0DCF82FE094F83C0010
:1041900000F003002749097888421AD0A08C00EB70
:1041A000400040024FF4B471B0FBF1F024490880A4
:1041B0002620005D00EB001000EB4000142190FB76
:1041C000F1F01D49087094F83C0000F00300194913
:1041D000087002A803A9EAB204ABCDE900101648A2
:1041E0000178174800880BF0ACF800BF00BF9DF8BD
:1041F00010009DF80C109DF80820D708BDF800307D
:1042000067F304038F080093BDF8003067F34A1387
:10421000C7080093BDF8003067F3CF230093BDF8C3
:1042200000703B460193BDF80410084605B0F0BD90
:104230003801002036010020340100203501002023
:104240003201002010B50120074908700748FEF729
:10425000FBFB20B90648006828F084FF03E004480F
:10426000006828F08BFF10BDC40100203C1E002018
:10427000C801002010B5044694F84200C0F3400085
:1042800070B9B4F8400000280ADDB4F840004FF6D9
:10429000FF71884204D0B4F84000401EA4F84000EA
:1042A000B4F84000D0B9A06B20B194F84200C0F33C
:1042B000400098B121461A48FEF77FFCFFF7C2FF85
:1042C000E06810B12046E1688847206910B12046B7
:1042D0002169884720461FF045F91FE0E06B404206
:1042E0002063A06BD0B194F84210C1F3400111B922
:1042F000616B4942216394F842104908C94394F81C
:10430000422061F3410284F84220206AA16A2162BE
:10431000A062E06AA16BE162A06300BF10BD000073
:104320003C1E00202DE9F04180464248006828F0FC
:104330007BFD06464048007880F001003E49087049
:104340003E48FEF781FB04466BE000203C490870C4
:1043500094F84200C0F3800037490978884253D06E
:10436000354801783034A07C61F38200A074206865
:104370008719A07C303CC0F3C00010BB206B002824
:104380001FDC002F1DDB94F8420000F0010060B933
:10439000606950B12046616988470546206A284413
:1043A0002062A06A2844A06200BFA06810B1204625
:1043B000A168884794F8420020F00800083084F88B
:1043C0004200206B30442063206B00281BDBD4E9C3
:1043D0000B10884201DDE06A20632046E1698847CE
:1043E0000546606AA84206D06562606818B1294631
:1043F000D4E900029047D4E90B10884202DB204642
:10440000FFF738FF00BF00BF0D48007820B10B4810
:10441000FEF71AFB044604E021460848FEF72CFB91
:104420000446002C91D128F00DFD02490860BDE83A
:10443000F0810000C0010020C50100203C1E0020CA
:10444000C401002070B504460D46606818B12946C5
:104450006068FFF7F7FF206818B1294620462268F8
:10446000904770BD70B505460C46A1B2284614F0C1
:1044700039F870BD70B505460C46A1B2284614F057
:1044800082F870BD2DE9FF4F8FB01F46DDF88880A0
:104490001C980E901D980D9000200B9023980428D6
:1044A00006D0052809D006280CD014281AD114E00B
:1044B00000200C904FF0020917E001200C904FF003
:1044C000030912E001200C904FF00209FEF770FE84
:1044D00005462868008F0B9007E001200C904FF0F4
:1044E000020902E013B0BDE8F08F00BF002489E1AB
:1044F0001E9860430E9901EB20201C901F9860438A
:104500000D9901EB20201D901C9805121D98061294
:10451000002D07DB1098854204DA002E02DB11988B
:10452000864203DB002008F8040069E11C98C0B251
:104530000A901D9800F0FF0A0A98802807DA4FF0C9
:10454000FF3B0A98C0F17F0040000A9005E04FF061
:10455000010B0A98803840000A90BAF1800F07DA00
:104560004FF0FF300990CAF17F004FEA400A05E0A2
:1045700001200990AAF180004FEA400A0F980890A4
:1045800006FB07F000FB09F005FB09010898084449
:10459000089005EB0B0000287EDB05EB0B01109863
:1045A000401E814278DC099830440028F4DB0998E9
:1045B00031181198401E8142F4DC08980790089841
:1045C0000BFB09000690099800FB07F1089801FB16
:1045D000090005900C9800287FD0239B052B06D15D
:1045E000079B9878059B9978069B9A783BE0239BDC
:1045F000142B18D1DDF844C007FB0CFCDDF83CE0BF
:104600000EEB4C0306FB073C1CF8050006FB073CC1
:10461000AC441CF80B20DDF824C0B4440CFB073C70
:104620001CF805101FE0239B062B19D1079B1B8844
:10463000BDF82CC063450BD0059B1B88BDF82CC072
:10464000634505D0069B1B88BDF82CC0634503D18C
:10465000002308F80430D3E0FF20FF21FF2202E00E
:10466000FF20FF21FF22814207D001FB0AF3CAF598
:10467000807C00FB0C33C3F30721824209D00A9BE4
:104680005343DDF828C0CCF5807C00FB0C33C3F32A
:1046900007228B185B1000E059E008F8043018F886
:1046A000043003B9ACE0079B93F800C05B780CEBD7
:1046B00003239BB20493059B93F800C05B780CEB3B
:1046C00003239BB20393069B93F800C05B780CEB2B
:1046D00003239BB202930CE0FFE707980088049045
:1046E000069800880290059800880390FF2008F83B
:1046F0000400BDF81000BDF80C1088420CD1BDF8C4
:104700001000BDF80810884206D1219800EB440043
:10471000BDF81010018019E00AF0FF02DDE9030185
:1047200016F02CFA03900A98C2B20499029816F077
:1047300025FA02907F22DDE9020116F01FFA0190AE
:10474000219800EB4400BDF80410018057E008995F
:104750000A78497802EB01218AB2219921F81420C4
:104760002399052904D0062905D0142919D10EE072
:104770000899887817E0219931F81410BDF82C2099
:10478000914201D1002100E0FF2108460BE0119A7F
:1047900007FB02F10F9A02EB410106FB0711485D8E
:1047A00001E0FF2000BF00BF15B9BBF1000F06DB21
:1047B0001099491EA9420BD1BBF1000F08DD0A99DF
:1047C000C1F1FF014143C1F3072108F8041015E0CE
:1047D00016B90999002906DB1199491EB1420AD17F
:1047E0000999002907DDCAF1FF014143C1F30721FF
:1047F00008F8041002E0002108F8041000BF00BF10
:10480000601C04B220988442FFF672AE00BF69E6D5
:104810002DE9F84F04468C4690469946109FDDE9F5
:104820000A56AA460096002032E00C9941430AEB52
:1048300021250D994143DDF800B00BEB21262A120A
:104840003312002A05DB624503DA002B01DB434506
:1048500002DB0021395419E0214603FB09FB0BEB75
:104860004B0B02EB420EF344594491F800B091F81F
:1048700001E00BEB0E2B1FFA8BFEDDF83CB02BF8A2
:1048800010E091F802B007F800B000BF411C08B278
:104890000E998842C9DBBDE8F88F10B50DF066FDB2
:1048A00010BD70B505460C46164606E028466A1C43
:1048B00095B200F008F804F8010B301EA6F10101D2
:1048C0008EB2F3D170BD70B5044600260DF0FCFD2C
:1048D0002112A02202EB4101C8B20DF0BDFD0DF086
:1048E0003BFE2546E11704EB11610912A4EB0121FF
:1048F000C8B20DF0B1FD0DF02FFE0DF0E5FDA120C9
:104900000DF0AAFD0DF028FE00200DF075FD064605
:104910000DF002FE304670BD70B505460C461646D9
:1049200006E02178284600F009F8681C85B2641C6E
:10493000301EA6F101018EB2F3D170BD70B50446F0
:104940000E460DF0C1FD2112A02202EB4101C8B2BA
:104950000DF082FD0DF000FE2546E11704EB11611C
:104960000912A4EB0121C8B20DF076FD0DF0F4FDA3
:1049700030460DF071FD0DF0EFFD0DF0CDFD0A207C
:1049800002F030F970BD000030B591B00446254604
:10499000A88F18B9204629F0F3FF1EE0684612F0F0
:1049A00039FF2946684612F0EBFF0D49684612F0C0
:1049B000BAFFA98F684612F0C9FF0122002168469C
:1049C00012F0D6FF0749684612F0B1FF064803907F
:1049D00000BF684612F0E8FF00BF11B030BD000014
:1049E00009EA0208FF7801080BEA020870B50446DC
:1049F0000D4600BF204600F03BF818B100BF00BFD5
:104A000000BFFEE700BF284600F050F9001D6168B6
:104A100008446060204600F03AF8204670BD70B54A
:104A200005460C46284600F041F904F11001884281
:104A300001D3012070BD0020FCE70146A1F1080070
:104A400070477CB505460C46204600F02FF9064617
:104A50006A4601A929F094FB21462846DDE9003287
:104A60000EF0BAFE7CBD0146087900F001007047E7
:104A700010B50446204600F019F908B9012010BD10
:104A80000020FCE70146087900F00200704770B58D
:104A90000446204600F097F805462C60284670BD75
:104AA0007CB506460C4600200190009000256CB1B4
:104AB0006A4601A9204629F080FB01980A2805DAF8
:104AC0006A4601A930462BF0CFFD054685B100BFEF
:104AD000284600F0EBF8A04203D200BF00BF00BFA1
:104AE000FEE700BF29463046DDE900322BF006F92B
:104AF00028467CBD70B504462046FFF7C8FF054632
:104B0000284600F0BEF8204600F0B6F870BD70B53B
:104B10000446204600F057F80546284600F0B6F84F
:104B2000204600F0BEF870BD70B506460D4628461A
:104B300000F049F8044600BF1CB900BF00BF00BF29
:104B4000FEE700BF2046FFF78EFF90B100BF28466A
:104B5000FFF78EFF18B100BF00BF00BFFEE700BF28
:104B60002146304600F076F821462846FFF73EFF02
:104B70000546284670BD70B506460D462846FFF727
:104B800081FFF0B1284600F057F8044600BF1CB979
:104B900000BF00BF00BFFEE700BF00BF2046FFF719
:104BA00062FF18B900BF00BF00BFFEE700BF21468B
:104BB000304600F04FF829462046FFF717FF05461C
:104BC00000BF284670BD2DE9F0410446204600F0A4
:104BD0006DF8061F204600F0B8F80746314629F068
:104BE000D6FD054600BF2046FFF742FF18B100BFC3
:104BF00000BF00BFFEE700BF2846BDE8F0812DE9F9
:104C0000F04106460C461546002794B100BF1DB979
:104C100000BF00BF00BFFEE700BF2A462146304666
:104C200000F097F82046FFF772FF204600F08DF85D
:104C300007463846BDE8F08110B5044600BF20465F
:104C4000FFF720FF18B900BF00BF00BFFEE700BF9D
:104C5000206810BD7CB505460C46204600F026F8BD
:104C600006466A4601A929F08BFA21462846DDE965
:104C700000322BF043F87CBD416841F001014160F6
:104C80007047416841F0020141607047416821F07E
:104C9000020141607047426802F003030B43436026
:104CA0007047416821F00101416070470146486842
:104CB00020F0030070472DE9F04706460C463046C9
:104CC00000F043F88046211F29F061FD0746304679
:104CD000FFF7ECFF211D451A00BF384600F035F8FC
:104CE0008146384600F031F880460421FFF7B7F8D6
:104CF000814503D000BF00BF00BFFEE700BF00BF7B
:104D00003046FFF7D3FF2919091D884203D000BFA1
:104D100000BF00BFFEE700BF29463846FFF7BBFFD4
:104D200000BF3846FFF7C2FF0C2803D200BF00BF08
:104D300000BFFEE700BF21463046FFF7ACFF384614
:104D4000FFF7D8FE3846BDE8F087014601F10800BC
:104D500070472DE9F04106460C46154600BF204637
:104D6000FFF781FE18B900BF00BF00BFFEE700BF1C
:104D700029462046FFF753FE78B129462046FFF723
:104D80009AFF07462046FFF782FE3846FFF779FF75
:104D900039463046FFF755FE00BFBDE8F0812DE9EA
:104DA000F04106460C46154600BF2046FFF75BFE65
:104DB00018B100BF00BF00BFFEE700BF2946204674
:104DC000FFF72DFE88B129462046FFF774FF0746FE
:104DD0003846FFF75BFF39463046FFF7A5FE07462A
:104DE00039463046FFF72DFE00BFBDE8F0812DE9C2
:104DF000F843064634461CF03FFB804640461CF014
:104E000080FB78BB30461AF0D8F838B3304619F03A
:104E100044FF208FE18E884212D0E08E2087E08E02
:104E200000906A461C2130461AF0B8FB0746012F55
:104E300002D03846BDE8F883304622F055FF00BF67
:104E400040461CF06EFB0546042D06D1304620F08E
:104E5000CDFC074600211BF077FA09E030461AF036
:104E60000FF905E0FFE7208FE086304622F03CFF97
:104E70000120DFE72DE9F041044620461AF088FBC7
:104E80000546284620F00CFD0646284614F016FC80
:104E9000074600223946304627F0BCF9BDE8F081CC
:104EA0000146C1F3002070470146C1F3C0107047AE
:104EB0000146C1F3002070470146C1F3402070470E
:104EC0000146C1F3001070470146C1F380107047DE
:104ED0000146C1F3802070470146C1F3C0207047EE
:104EE0000146C1F3401070472DE9F04F89B00446E8
:104EF0000D460021204620F06CFB30B91C212846CD
:104F00001EF006FD09B0BDE8F08F2946204600F0EE
:104F10000BFB2946204600F07DF80021204621F0B9
:104F200087FD08900021204621F0EAFE079000212D
:104F3000204621F03CFB012800D100E00020814602
:104F40000021204622F076F907460021204621F074
:104F500015FC064642F2D170874205D1608CC0F341
:104F6000C02008B9012000E000208246204620F041
:104F7000D0FB069000BF4FF000082448028841464D
:104F8000204621F07DFF03900398C0B200BF834606
:104F9000AA6829692868CDE90209CDE900125A46B4
:104FA0005146089B06980CF00FFE288342F2D17000
:104FB000864205D1608CC0F3802008B9012000E052
:104FC00000200590204620F085FB049000BF4FF0A4
:104FD00000080F4802884146204621F051FF039007
:104FE0000398C0B200BF83460023EA686968686915
:104FF000CDE90213CDE900025A46079BDDE9040121
:105000000CF0E2FD688300BF7CE70000A8000020F0
:10501000AC0000202DE9F34F87B00C4607980BF049
:105020009FFD8046079820F074FB0690404601F0F3
:10503000DFFA2061216948001EF000FA2060216932
:1050400048001EF0FBF9A060002548E05848029097
:1050500038F9150041F69A7188423FD1002001903D
:1050600029E00199079820F0B4FA0090514900987E
:1050700022F081FA00B11BE000980BF08FFD824610
:10508000BAF1010F00D013E000980BF077FD8346D2
:10509000AB4500D00CE0009822F005FA0299884256
:1050A00001DA029802E0009822F0FDF9029000BFB8
:1050B0000198401C0190079820F0A9FA01998842B4
:1050C000CFD80298002804DB0298A16821F81500C7
:1050D00003E00021A06820F8151000BF6D1C2069B6
:1050E000A842B3D80026B14600251BE038F91500C8
:1050F00041F69B71884202DB411A0E4411E041F6F1
:105100009A71884206D1A16831F8151049440FFA06
:1051100081F906E0A16821F8150009EB00010FFAFA
:1051200081F96D1C2069A842E0D80021079821F080
:105130007FFC05902169491EDDE9050200FB112075
:1051400000B206900698A0EB090007B2002F00DA23
:1051500000274FF0FF30049000200390002513E05B
:1051600038F9150041F69B7188420CDB421A11B2E6
:1051700007FB01F2B2FBF6F212B2A36823F8152086
:105180000495039100BF6D1C2069A842E8D80498DB
:1051900000280ADB0398301A7843B0FBF6F0381A7F
:1051A00001B2A268049822F8101009B0BDE8F08F8F
:1051B00001E0FFFF010006002DE9FC5F054600222B
:1051C0001146284623F008FF0021284621F057FA0F
:1051D00081460021284621F0B7FD484407B200214E
:1051E000284621F095FB48440FFA80FA284621F022
:1051F0004BF9384450440FFA80FB3B4E284620F0D0
:1052000006FA01904FF000085CE0A868006850F8CA
:1052100028403649204622F0AEF900B150E0204641
:1052200022F0DAFD002839D10021204621F05DF975
:105230000090009830B1012807D0022804D003283C
:1052400015D100E000BF00BF00BFB4F91A10B5F9D6
:105250001600081A401CB04201DA304605E0B4F9E5
:105260001A10B5F91600081A401C06B214E0002105
:10527000204622F00FF870B904F1140013F066FA1A
:105280003844B04201DA304604E004F1140013F06F
:105290005DFA384406B200BF00BF10E0B4F91A103E
:1052A000B5F91600081A401CB04201DA304605E094
:1052B000B4F91A10B5F91600081A401C06B200BF5E
:1052C00008F10108019880459FD30748864209D01C
:1052D00006EB0A0006B25E4502DD3046BDE8FC9FE3
:1052E0005846FBE75846F9E701E0FFFF01000400DC
:1052F0002DE9FC5F054600221146284623F050FEAA
:105300000021284621F0BBF982460021284621F0E1
:1053100067FC50440FFA80F80021284621F0C4FBB6
:1053200050440FFA80F9284621F0BEF84844404422
:1053300000B20190724C284620F069F983460021A2
:10534000284621F010F9012866D100265BE0A86804
:10535000006850F826706B49384622F00CF900B10D
:1053600050E0384622F038FD002839D10021384677
:1053700021F0BBF80090009830B1032805D0062832
:1053800004D0082815D102E000BF00BF00BFB5F966
:105390001800B7F91410401A401CA04201DA204648
:1053A00005E0B5F91800B7F91410401A401C04B212
:1053B00014E00021384621F061FF70B907F11400B4
:1053C00013F037FA4044A04201DA204604E007F126
:1053D000140013F02EFA404404B200BF00BF10E0E6
:1053E000B5F91800B7F91410401A401CA04201DAB0
:1053F000204605E0B5F91800B7F91410401A401C12
:1054000004B200BF761C5E45A1D33D48844269D0FA
:1054100004EB090004B265E000265BE0A8680068C0
:1054200050F826703749384622F0A5F800B150E010
:10543000384622F0D1FC80BB0021384621F055F8D7
:105440000090009830B1012805D0042804D0072826
:1054500015D102E000BF00BF00BFB7F91800B5F9D1
:105460001410401A401CA04201DA204605E0B7F9AA
:105470001800B5F91410401A401C04B215E00021C0
:10548000384621F007FF78B907F1140013F0D1F97D
:105490004844A04202DA204605E008E007F1140083
:1054A00013F0C7F9484404B200BF00BF10E0B7F9D9
:1054B0001800B5F91410401A401CA04201DA204629
:1054C00005E0B7F91800B5F91410401A401C04B2F1
:1054D00000BF761C5E45A1D30948844202D004EB8C
:1054E000080004B20648844202D10198BDE8FC9F3E
:1054F0000198844201DD2046F8E70198F6E70000B4
:1055000001E0FFFF0100040010B5044620681EF012
:1055100011F860681EF00EF8A0681EF00BF8E06845
:105520001EF008F810BD00002DE9F34F87B00C46BF
:1055300007980CF0DBF88046404601F059F86061AE
:10554000616948001DF07AFF6060616948001DF0E4
:1055500075FFE060002547E05948029038F91500D2
:1055600041F69A7188423ED14FF0000A29E0514637
:10557000079820F02EF801905249019821F0FBFF86
:1055800000B11CE001980CF073F98346BBF1010FE8
:1055900000D014E001980CF05BF900900098A8424C
:1055A00000D00CE0019820F02BF90299884201DA32
:1055B000029802E0019820F023F9029000BF0AF15E
:1055C000010A079820F023F85045D0D80298002807
:1055D00004DB0298E16821F8150003E00020E1688F
:1055E00021F8150000BF6D1C6069A842B4D80026E0
:1055F000B14600251BE038F9150041F69B71884241
:1056000002DB411A0E4411E041F69A71884206D13C
:10561000E16831F8151049440FFA81F906E0E168B4
:1056200021F8150009EB00010FFA81F96D1C606982
:10563000A842E0D80021079821F062FB0690079865
:1056400020F048F801466269521E069800FB1210CD
:1056500000B205900598A0EB090007B2002F00DA10
:1056600000274FF0FF30049000200390002513E046
:1056700038F9150041F69B7188420CDB421A11B2D1
:1056800007FB01F2B2FBF6F212B2E36823F8152031
:105690000495039100BF6D1C6069A842E8D8049886
:1056A00000280ADB0398301A7843B0FBF6F0381A6A
:1056B00001B2E268049822F8101009B0BDE8F08F3A
:1056C00001E0FFFF0100060038B5044600256E2208
:1056D0002946204621F0D4FB0090009800B208B182
:1056E000022038BD00256D222946204621F0C8FB46
:1056F0000090009800B2B0F5807F01D00220F0E762
:10570000002561222946204621F0BAFB009000982E
:10571000C0B2FF2801D00120E3E700256822294616
:10572000204621F0ADFB00900098C0B208B10120E6
:10573000D7E70020D5E77CB504460D4616462888F5
:105740002189084400B2ADF80000688861890844E6
:1057500000B2ADF80200A8882189084400B2ADF873
:105760000400E8886189084400B2ADF806003246BA
:1057700069462046636998477CBD0000F8B5054638
:105780000E462C46A06B58B1284627F035F907463F
:10579000114909688847A16B884201D30020F8BDF0
:1057A000606B10B1606B007808B90120F7E700204A
:1057B00000900AE06946094A606B12689047074604
:1057C000B74201D10120EAE700BF606B0099405C5D
:1057D0000028EFD100BFE2E73802002028020020B5
:1057E0002DE9FF4F8FB00F46209DF87800F00100A3
:1057F00008B1F94800E0F9480E90F87800F001008F
:1058000008B1F74800E0F7480D90F87800F0010083
:1058100008B9F34800E0F3480C9001200B90BEE07B
:1058200000210B9100206988B5F804C0A1EB0C01A0
:105830000AB200261AE006EB860CE96801EB8C013F
:10584000097C01F0010141B906EB860CE96801EB26
:105850008C018989014408B207E006EB860CE968EF
:1058600001EB8C010989511A0AB2761C2969B142EF
:10587000E1D800268EE006EB860CE96801EB8C018E
:10588000097C01F0010100297DD100BF18B900BFDA
:1058900000BF00BFFEE700BF92FBF0F80FFA88F3ED
:1058A00006EB8609D5F80C8008EB8908B8F80C805F
:1058B00008FB03F80FFA88F106EB8609D5F80C808F
:1058C00008EB8908B8F9049006EB860AD5F80C8035
:1058D00008EB8A08B8F90680884501DD884607E0AC
:1058E00006EB860AD5F80C8008EB8A08B8F9068022
:1058F000C14508DD06EB8609D5F80C8008EB890860
:10590000B8F9048013E006EB8609D5F80C8008EBA3
:105910008908B8F90680884501DD884607E006EB6E
:105920008609D5F80C8008EB8908B8F90680C446CA
:105930008C450BD04FF0010806EB860AD5F80C9089
:1059400009EB8A09C9F81080CDF82C8006EB86098E
:10595000D5F80C8008EB8908A8F808C006EB860982
:10596000D5F80C8008EB8908B8F80C80A0EB080883
:105970000FFA88F006EB8609D5F80C8008EB890849
:10598000B8F8088000E004E0A2EB08080FFA88F2FB
:1059900000BF761C2969B1423FF66DAF00BF0B987E
:1059A00000287FF43DAF00210F9820F0F4FD01287E
:1059B00000D100E000200A9000200990089008A87B
:1059C00009A9CDE9001029890BB2B5F90220387870
:1059D0001E9928F0DFFEF87800F0010048B10A981F
:1059E00038B10F981FF095FEBDF82410084400B29E
:1059F000099011990F981FF0ECFD04468FE17A4948
:105A0000204621F0B8FD40B1F878C0F3800111AA1A
:105A10000F980BF09CFC044681E10021204620F009
:105A200085FE07900798002860D00020039000268C
:105A300010E006EB8601E86850F82100A04208D18A
:105A400006EB8600E96801EB8000B0F908000390DE
:105A500003E0761C2869B042EBD800BFF87800F06C
:105A6000010050B1608C20F4006000F5006060849B
:105A7000608C20F48060608409E0608C20F4806099
:105A800000F580606084608C20F40060608404F124
:105A900014000D9988470399884226D0204622F0A9
:105AA00023F900BFA08AADF80400E08AADF8060033
:105AB000208BADF80800608BADF80A0000BF04F140
:105AC00014000E9A0399904701AA2921204619F043
:105AD00065FD20461FF0E4FE22462221009019F0C9
